:020000021000EC
:108000000040002069820100A9820100AB820100CA
:108010000000000000000000000000000000000060
:10802000000000000000000000000000AD82010020
:108030000000000000000000AF820100B1820100DA
:10804000B5820100B782010021AC0100BB820100B2
:10805000BD82010000000000D1C60100C182010004
:10806000C3820100C5820100BDA80100C9820100D0
:10807000CB820100CD820100CF820100D1820100BC
:10808000D382010035BA0100D78201000000000050
:10809000D9820100DB820100051D0200DF820100A0
:1080A000E1820100E3820100000000000000000006
:1080B00000000000000000000000000000000000C0
:1080C00010B5064C2378002B07D10548002802D0B4
:1080D000044800E000BF0121217010BD8829002064
:1080E00000000000385D020008B5084B002B03D0EB
:1080F0000748084900E000BF07480168002903D08D
:10810000064A002A00D0904708BDC0460000000083
:10811000385D02008C29002080290020000000002A
:10812000164B002B00D1144B9D46402292029A1A06
:10813000924600218B460F461348144A121A00F04B
:1081400089F80F4B002B00D098470E4B002B00D026
:1081500098470020002104460D4600200C490022CB
:10816000002300F017F800F04FF82046294603F0EE
:108170002FF800F01BF8C046000008000040002067
:10818000000000000000000088290020B432002018
:10819000DD81010010B5044C002C02D000E000BFCE
:1081A00000E0201C10BDC04600000000094B10B5C7
:1081B000041C002B03D0002100E000BF01E000F010
:1081C0000DF805480068816A002900D08847201C06
:1081D00000F048F8000000007044020038B5084B79
:1081E000084C1D1CE01A8410002C06D0A1006A184F
:1081F000043A13689847013CF6E70CF031F938BDB2
:108200007C2900208029002070B50E4B0E4D0024E3
:10821000E81A85101E1CAC4204D0A1007258904789
:108220000134F8E70CF016F90849094A0E1C541AF3
:10823000A5100024AC4204D0A300F05880470134BC
:10824000F8E770BD782900207829002078290020DF
:108250007C2900208218031C934202D0197001333C
:10826000FAE77047FEE7C0460948026803210A435F
:1082700002600849084A094B9B1A05DD0024085989
:10828000105104349C42FADB0548804705480047FA
:1082900024050040445D02000028002080290020C1
:1082A000FD82010021810100FEE7FEE7FEE7FEE717
:1082B000FEE7FEE7FEE7FEE7FEE7FEE7FEE7FEE796
:1082C000FEE7FEE7FEE7FEE7FEE7FEE7FEE7FEE786
:1082D000FEE7FEE7FEE7FEE7FEE7FEE7FEE7FEE776
:1082E000FEE7FEE780B500AF024B034A1A60BD46C9
:1082F00080BDC0466C2800200024F40080B500AF8B
:1083000000F01EF8031C002B06D00A4B0A4A1A6024
:108310000A4B802212021A6000F052F8031C002B54
:1083200005D08023DA05C123DB000121D150BD46F1
:1083300080BDC04604050040DFFF07C0186C004048
:1083400080B500AF1A4B1A68FF231340012B2AD1C6
:10835000184B1A680F23134025D1174B1A68F023C6
:10836000134006D1154B1A68F023134001D10123A5
:108370001AE0114B1A68F0231340102B06D10F4B53
:108380001A68F023134001D101230DE00A4B1A684B
:10839000F0231340302B06D1084B1A68F02313400A
:1083A00001D1012300E00023181CBD4680BDC0465A
:1083B000E00F00F0E40F00F0E80F00F0EC0F00F029
:1083C00080B500AF0D4B1A68FF231340012B11D16C
:1083D0000B4B1A680F2313400CD10A4B1A68F02379
:1083E0001340402B06D1084B1A68F023134001D1EB
:1083F000012300E00023181CBD4680BDE00F00F003
:10840000E40F00F0E80F00F0EC0F00F070DF7047B1
:10841000181CC04671DF7047181CC04672DF7047D9
:10842000181CC04673DF7047181CC04674DF7047C5
:10843000181CC04675DF7047181CC04676DF7047B1
:10844000181CC04677DF7047181CC04678DF70479D
:10845000181CC04679DF7047181CC0467ADF704789
:10846000181CC0467BDF7047181CC0467CDF704775
:10847000181CC0467DDF7047181CC0467EDF704761
:10848000181CC0467FDF7047181CC04680DF70474D
:10849000181CC04681DF7047181CC04682DF704739
:1084A000181CC04683DF7047181CC04684DF704725
:1084B000181CC04685DF7047181CC04686DF704711
:1084C000181CC04687DF7047181CC04688DF7047FD
:1084D000181CC04689DF7047181CC046B0DF7047C3
:1084E000181CC046B1DF7047181CC046B2DF704789
:1084F000181CC04690DF7047181CC04691DF7047BB
:10850000181CC04692DF7047181CC04693DF7047A6
:10851000181CC04694DF7047181CC04695DF704792
:10852000181CC04696DF7047181CC04697DF70477E
:10853000181CC04698DF7047181CC046A0DF704763
:10854000181CC046A1DF7047181CC046A2DF704748
:10855000181CC046A3DF7047181CC046A4DF704734
:10856000181CC046A5DF7047181CC046A6DF704720
:10857000181CC046A7DF7047181CC046A8DF70470C
:10858000181CC046A9DF7047181CC046AADF7047F8
:10859000181CC04660DF7047181CC04661DF70477A
:1085A000181CC04662DF7047181CC04663DF704766
:1085B000181CC04664DF7047181CC04665DF704752
:1085C000181CC04666DF7047181CC04667DF70473E
:1085D000181CC04668DF7047181CC04680B582B0C2
:1085E00000AF2A4B1A682A4B1B689A424BD0274B84
:1085F0001A682849131CDB009B189B00CB189B783A
:10860000002B18D1214B1A682249131CDB009B1840
:108610009B00595A1D4B1A681E48131CDB009B18FF
:108620009B00C3189B88081C191C0022FFF776FFCB
:10863000031C7B6018E0154B1A681649131CDB00FD
:108640009B189B00595A114B1A68131CDB009B188E
:108650009B001A1C10320F4BD3180833081C191C2E
:10866000FFF764FF031C7B600B4B181C0AF04AFBEE
:10867000064B1B685A1C054B1A60044B1A680723EB
:108680001A40024B1A60BD4602B080BDCC2A0020C1
:10869000C82A0020A82900207444020080B582B0B6
:1086A00000AF78603960FFF799FFBD4602B080BD2A
:1086B00080B588B000AF786039603B689A897B6884
:1086C0009B889A421ED13B1C083302221A703B68D9
:1086D0001A1C12323B681B8A391C08310131081CF4
:1086E000111C1A1C0AF0BDFA3B681B8ADAB23B1C4B
:1086F00008335A757B689B6879683A1C0832081CF5
:10870000111C9847BD4608B080BDC04690B58BB0DF
:1087100000AF78607B681B78002B00D081E07B681D
:108720009B88012B00D07CE07B689A793E4B9B783C
:108730009A4200D075E03D4B1B687A6852881A80D7
:1087400000237B6255E079687A6A131C5B009B18F2
:108750009B00CB185B89032B25D179687A6A131C9F
:108760005B009B189B00CB181A7B2F4B9B789A427F
:1087700019D12E4B19687C687A6A0820131C5B009B
:108780009B189B00E3181B189B894B80274B19688B
:108790007C687A6A0820131C5B009B189B00E31816
:1087A0001B185B898B8079687A6A131C5B009B18A5
:1087B0009B00CB185B89022B18D179687A6A131C4D
:1087C0005B009B189B00CB181A7B174B9B789A4237
:1087D0000CD1164B19687C687A6A0820131C5B0060
:1087E0009B189B00E3181B185B89CB807B6A0133C5
:1087F0007B627B681B7A1A1C7B6A9A42A3D80C4B5B
:10880000181C0AF07FFA3B1C0C3301221A70074B2C
:108810001B689A68054B19683B1C0C33081C191C13
:108820009047BD460BB090BDD02A0020A42900205F
:10883000A444020080B588B000AF786039603A1C6B
:108840000C321F4B111C1A1C1023081C111C1A1C63
:108850000AF007FA7B68002B02D03B68002B01D19D
:108860000E2328E03A1C0C32164B101C191CFFF783
:1088700099FE031CFB61FB69002B01D0FB691AE028
:10888000114B01221A80114B7A681A600F4B1B683A
:108890003A6812689A600D4B1B68012252421A8096
:1088A0000A4B1B6800225A80074A094B101C191CEE
:1088B0000AF00EF8031C181CBD4608B080BDC04667
:1088C000D8440200D22A0020D02A0020A429002067
:1088D0000D87010080B582B000AF786039607B6899
:1088E000002B1FD03B68002B1CD03B681B88372B0C
:1088F0000FD0382B06D0102B12D13B689A887B689A
:108900001A8010E07A683B68101C191CFFF7D0FE33
:1089100009E07A683B68101C191CFFF7BFFE02E0F3
:10892000C04600E0C046BD4602B080BD80B584B000
:1089300000AFBB1D18803B1D1980FB1C1A70244B17
:10894000181C0AF0ABF93B1C0E33FA1C12781A8083
:10895000204B1A68131CDB009B189B001E495B18F8
:10896000BB6001321B4B1A601A4B1A6807231A406E
:10897000184B1A60BB683A1D12885A83BB680222E2
:10898000DA83BB681A1DBB681A62BB6800229A832F
:10899000BB6801221A763B1C0E331B88DAB2BB6817
:1089A0001A713B1C0E331B881B0A9BB2DAB2BB68E0
:1089B0005A71BB68BA1D12881A80BB6801229A706E
:1089C000FFF70CFE0023181CBD4604B080BDC04656
:1089D000E8440200C82A0020A829002080B586B0FB
:1089E00000AFF860B960BB1D1A80204B181C0AF05C
:1089F00055F91F4B1A68131CDB009B189B001D497F
:108A00005B187B6101321A4B1A60194B1A680723F5
:108A10001A40174B1A60FB68DA887B695A837B69B6
:108A2000BA1D1288DA837B691A1D7B691A627B6919
:108A300000229A837B6901221A767B69191DBB1D6E
:108A40001B88BA68081C111C1A1C0AF00AF9FB687A
:108A50001A887B691A807B6901229A70FFF7BEFD34
:108A60000023181CBD4606B080BDC046304502003C
:108A7000C82A0020A829002080B582B000AF786005
:108A80007B68002B01D10E2309E07B681A887B6884
:108A90005B88101C191C0122FFF748FF031C181CDF
:108AA000BD4602B080BDC04690B585B000AF0A1C7F
:108AB000FB1D011C1970BB1D1A703B1C08330022E2
:108AC0001A603B1C083366221A703B1C0833BA1D1F
:108AD00012785A703C1C0F34FB1D1A783B1C08336B
:108AE000101C191C0422012303F0DCF8031C237062
:108AF000BD4605B090BDC04690B585B000AF021C24
:108B0000FB1D1A703B1C0C336F221A703C1C0F3477
:108B1000FB1D1A783B1C0C33101C191C012201236D
:108B200003F0C0F8031C2370BD4605B090BDC046DD
:108B300090B585B000AF041C081C111C1A1CFB1D4D
:108B40001C70BB1D18707B1D19703B1D1A703B1CDF
:108B5000083363221A703B1C0833BA1D12785A700E
:108B60003B1C08337A1D12789A703B1C08333A1D5F
:108B70001278DA703C1C0F34FB1D1A783B1C08334A
:108B8000101C191C0422012303F08CF8031C237011
:108B9000BD4605B090BDC04690B585B000AF041C81
:108BA000081C111C1A1CFB1D1C70BB1D18707B1DA2
:108BB00019703B1D1A703B1C083370221A703B1C45
:108BC0000833BA1D12785A703B1C08337A1D12788C
:108BD0009A703B1C08333A1D1278DA703C1C0F3433
:108BE000FB1D1A783B1C0833101C191C042201239E
:108BF00003F058F8031C2370BD4605B090BDC04675
:108C000090B585B000AF0A1CFB1D011C1970BB1D7F
:108C10001A703B1C0C3374221A703B1C0C33BA1DA7
:108C200012785A703C1C0F34FB1D1A783B1C0C3315
:108C3000101C191C0222012303F034F8031C2370BA
:108C4000BD4605B090BDC04680B582B000AF021CE5
:108C5000FB1D1A70FB1D1B78181CFFF74DFFFB1D39
:108C60001B78181CFF2100220023FFF761FFBD467F
:108C700002B080BD80B582B000AF0A1CFB1D011C94
:108C80001970BB1D1A70BB1D1B78082B00D9BCE0E6
:108C90009A00664BD3181B689F46FB1D1B78181C57
:108CA000FFF72AFFFB1D1B78181CC821FFF7FCFEED
:108CB000FB1D1B78181CFF2100220023FFF738FF43
:108CC000B1E0FB1D1B78181CFFF716FFFB1D1B787E
:108CD000181CC821FFF7E8FEFB1D1B78181C00219B
:108CE0000022FF23FFF724FF9DE0FB1D1B78181CCB
:108CF000FFF702FFFB1D1B78181CC821FFF7D4FEED
:108D0000FB1D1B78181CFF21BF220023FFF710FF5B
:108D100089E0FB1D1B78181CFFF7EEFEFB1D1B787E
:108D2000181CC821FFF7C0FEFB1D1B78181C002172
:108D3000FF220023FFF7FCFE75E0FB1D1B78181CCB
:108D4000FFF7DAFEFB1D1B78181C0A21FFF7ACFEAB
:108D5000FB1D1B78181C0A21FFF752FFFB1D1B7817
:108D6000181C042100220023FFF716FF5BE0FB1D07
:108D70001B78181CFFF7C0FEFB1D1B78181CFF2179
:108D8000FFF792FEFB1D1B78181CD821FFF738FF58
:108D9000FB1D1B78181C042100220023FFF7FCFE9A
:108DA00041E0FB1D1B78181CFFF7A6FEFB1D1B787E
:108DB000181C0A21FFF778FEFB1D1B78181C0A21DE
:108DC000FFF71EFFFB1D1B78181C05210022002346
:108DD000FFF7E2FE27E0FB1D1B78181CFFF78CFE57
:108DE000FB1D1B78181CFF21FFF75EFEFB1D1B7887
:108DF000181CD821FFF704FFFB1D1B78181C052148
:108E000000220023FFF7C8FE0DE0FB1D1B78181C95
:108E1000FFF772FEFB1D1B78181C0921002200239E
:108E2000FFF7BAFEC046BD4602B080BD7C450200D9
:108E300080B582B000AF786039601E4B1B78272B5D
:108E400015D81C4B1B781A1C1B4BD2007968D150CB
:108E5000184B1B78184ADB00D31804333A681A60A1
:108E6000144B1B780133DAB2124B1A701FE0114B0E
:108E700000221A70104AA0235B00101C00211A1C4B
:108E8000FFF7E8F90B4B1B781A1C0B4BD2007968E3
:108E9000D150084B1B78084ADB00D31804333A68DA
:108EA0001A60044B1B780133DAB2024B1A70BD46CC
:108EB00002B080BD3C2C0020D42A002080B582B0B6
:108EC00000AF78603960064B7A6851003A688A18BA
:108ED0009200D358DBB2181CBD4602B080BDC0461C
:108EE000D42A002080B582B000AF0A1CFB1D011CF3
:108EF0001970BB1D1A70FB1D1A78BB1D1978034B26
:108F00009200D150BD4602B080BDC046142C002056
:108F100080B582B000AF021CFB1D1A70FB1D1A78D1
:108F2000034B9200D358DBB2181CBD4602B080BD83
:108F3000142C002080B582B000AF021CFB1D1A70FB
:108F4000064BFA1D1278111C1F220A400121081C31
:108F50009040021C1A60BD4602B080BD00E100E0F6
:108F600080B582B000AF021CFB1D1A70074AFB1DC2
:108F70001B78191C1F230B400121081C9840031C5F
:108F8000191C8023D150BD4602B080BD00E100E035
:108F9000B0B582B000AF021C3960FB1D1A70FB1D1A
:108FA0001B787F2B32D93049FB1D1B781A1C0F23ED
:108FB0001340083B98082C4AFB1D1B781C1C0F23F0
:108FC0002340083B9B0806339B00D3185B68FA1DBF
:108FD0001278141C03222240D200FF24251C954045
:108FE0002A1CD2431A403B689C01FF231C40FB1DF6
:108FF0001B781D1C03232B40DB00251C9D402B1CD4
:109000001A43831D9B00CB185A6029E0174BFA1DA9
:10901000127852B292081549F81D007840B28008C3
:10902000C03080004158F81D0078041C0320204007
:10903000C000FF24251C8540281CC0430840396817
:109040008C01FF210C40F91D09780D1C03212940DA
:10905000C900251C8D40291C0143C0329200D1500B
:10906000BD4602B0B0BDC04600ED00E000E100E04A
:1090700080B500AFBFF34F8F024B034ADA60BFF3F6
:109080004F8FFEE700ED00E00400FA0523DF704794
:10909000181CC04624DF7047181CC04625DF7047E7
:1090A000181CC04626DF7047181CC04627DF7047D3
:1090B000181CC04628DF7047181CC04629DF7047BF
:1090C000181CC0462ADF7047181CC0462BDF7047AB
:1090D000181CC0462CDF7047181CC0462DDF704797
:1090E000181CC0462EDF7047181CC0462FDF704783
:1090F000181CC04630DF7047181CC04631DF70476F
:10910000181CC04632DF7047181CC04635DF704758
:10911000181CC04636DF7047181CC04633DF704746
:10912000181CC04634DF7047181CC04637DF704734
:10913000181CC04638DF7047181CC04639DF70471E
:10914000181CC0463ADF7047181CC0463BDF70470A
:10915000181CC0463CDF7047181CC0463DDF7047F6
:10916000181CC0463EDF7047181CC0463FDF7047E2
:10917000181CC04641DF7047181CC04642DF7047CC
:10918000181CC04643DF7047181CC04640DF7047BC
:10919000181CC04644DF7047181CC04645DF7047A6
:1091A000181CC04646DF7047181CC04647DF704792
:1091B000181CC04648DF7047181CC04649DF70477E
:1091C000181CC0464ADF7047181CC0464BDF70476A
:1091D000181CC0464CDF7047181CC0464DDF704756
:1091E000181CC04651DF7047181CC04652DF70473C
:1091F000181CC04621DF7047181CC04620DF70478E
:10920000181CC04622DF7047181CC04610DF70478C
:10921000181CC04611DF7047181CC04612DF70478B
:10922000181CC04613DF7047181CC04670DF70471B
:10923000181CC04671DF7047181CC04672DF7047AB
:10924000181CC04673DF7047181CC04674DF704797
:10925000181CC04675DF7047181CC04676DF704783
:10926000181CC04677DF7047181CC04678DF70476F
:10927000181CC04679DF7047181CC0467ADF70475B
:10928000181CC0467BDF7047181CC0467CDF704747
:10929000181CC0467DDF7047181CC0467EDF704733
:1092A000181CC0467FDF7047181CC04680DF70471F
:1092B000181CC04681DF7047181CC04682DF70470B
:1092C000181CC04683DF7047181CC04684DF7047F7
:1092D000181CC04685DF7047181CC04686DF7047E3
:1092E000181CC04687DF7047181CC04688DF7047CF
:1092F000181CC04689DF7047181CC046B0DF704795
:10930000181CC046B1DF7047181CC046B2DF70475A
:10931000181CC04690DF7047181CC04691DF70478C
:10932000181CC04692DF7047181CC04693DF704778
:10933000181CC04694DF7047181CC04695DF704764
:10934000181CC04696DF7047181CC04697DF704750
:10935000181CC04698DF7047181CC046A0DF704735
:10936000181CC046A1DF7047181CC046A2DF70471A
:10937000181CC046A3DF7047181CC046A4DF704706
:10938000181CC046A5DF7047181CC046A6DF7047F2
:10939000181CC046A7DF7047181CC046A8DF7047DE
:1093A000181CC046A9DF7047181CC046AADF7047CA
:1093B000181CC04660DF7047181CC04661DF70474C
:1093C000181CC04662DF7047181CC04663DF704738
:1093D000181CC04664DF7047181CC04665DF704724
:1093E000181CC04666DF7047181CC04667DF704710
:1093F000181CC04668DF7047181CC04680B582B094
:1094000000AF7860A023DB057A68C132FF3292009A
:109410000321D150BD4602B080BDC04680B582B0A8
:1094200000AF78600A1CFB1C1A70A023DB05FA1C35
:1094300012789200111C7A68C132FF329200D1502A
:10944000BD4602B080BDC04680B582B000AF786036
:10945000A023DA057B6801219940A123DB00D150CC
:10946000BD4602B080BDC04680B582B000AF786016
:10947000A023DA057B6801219940024BD150BD46FB
:1094800002B080BD0C05000080B582B000AF7860EE
:10949000A023DA05A223DB00D2587B68DA4001233F
:1094A0001340181CBD4602B080BDC04680B582B0D6
:1094B00000AF7860C046C046C046C046C046C04601
:1094C000C046C046C046C046C046C046C046C0466C
:1094D0007B68013B7B60002BECD1BD4602B080BDB8
:1094E00080B584B000AFF860B9607A601820FFF7EB
:1094F000ABFF044B181C09F005FCFFF7B9FDBD4696
:1095000004B080BD0846020080B500AF284B0022A1
:109510001A60284AC2239B0001214942D150254BA1
:1095200001225A60234B0122DA60224A224B002199
:10953000D150204AA0235B000021D1501D4AA22314
:109540005B000021D1501B4AA4235B000021D150B5
:10955000184AA6235B000021D150164A80239B00A5
:109560000021D150134AA223DB000321D150114A1C
:10957000A123DB000321D1500E4AC1239B0080218F
:109580004902D1500B4A80239B000121D150094A46
:10959000A823DB00C821D150064B01221A600A2003
:1095A0000321FFF7F5FC0A20FFF7C4FCBD4680BD90
:1095B000082D002000A000400405000080B500AF89
:1095C0000A20FFF7CDFCBD4680BDC04680B582B005
:1095D00000AF78607B681B78181C02F097FE7B68F0
:1095E00001331B78181C02F091FE7B6802331B7854
:1095F000181C02F08BFEBD4602B080BD80B584B061
:1096000000AFFB1D181CFFF76DFDFFF7D7FF1F4BC9
:1096100000221A701E4B00221A701E4B00221A7074
:10962000FB1D1B78181CFFF761FD1B4B1B88181CCA
:109630001321FFF713FE031CFB60184B1B7801334B
:10964000DAB2164B1A70154B1B780120191CFFF764
:1096500049FCFB68DBB20220191CFFF743FCFB68E6
:10966000082B02D0FB68012B0DD1FB68BB60BB68E7
:10967000002B08D0B96890235A00094B081C111C14
:109680001A1CFFF72DFFBD4604B080BD0C2D002035
:10969000E42C0020D42C0020E62C0020FD2C0020FF
:1096A0001846020080B582B000AF021C3960BB1DB5
:1096B0001A80BB1D1A8805493B68081C111C1A1C1E
:1096C000FFF70EFFBD4602B080BDC046EFBEADDE67
:1096D00080B586B000AF786039603B681B78012B9D
:1096E00002D0022B14D020E07B68181CFFF7C4F9CD
:1096F000031C3B613B69FB60FB68002B17D0F968DA
:109700000D4A0E4B081C111C1A1CFFF7E9FE0EE057
:1097100000237B6102E07B6901337B613B685B7DF9
:109720001A1C7B699A42F6D802E0C04600E0C046A7
:10973000BD4606B080BDC0464B0100001846020081
:1097400080B58AB000AFF860B9607A60BB681B78FA
:10975000113B122B00D9CDE09A006E4BD3181B6839
:109760009F466D4B1B780133DAB26B4B1A706A4B14
:109770001B780320191CFFF7B5FBBB685B681A88D0
:10978000664B1A801820FFF75FFE654AFB68111CC4
:109790001A1C0423081C111C1A1C09F062FA614BE4
:1097A00000221A70BB685B681B885F4A101C191C7A
:1097B00009F0BAF8031C7B625C4A7B6A101C191C16
:1097C00009F06CFA5A4B1B780133DAB2584B1A7015
:1097D000574B1B78002B00D08EE001F055F98BE041
:1097E000504B01221A70504B181C00216222FEF7C8
:1097F00031FD1820FFF738FE4D4B1B78012B01D1AE
:1098000001F042F94A4B1B78013BDAB2484B1A701F
:10981000484BB4221A60484B181C09F073FA74E0E4
:109820003F4B181C06F006FA031C7B62434A7B6A16
:10983000101C191C09F032FA7B6A3B623B6A002B50
:109840005CD0396A3E4A3F4B081C111C1A1CFFF7BA
:1098500047FE53E03C4B181C03F0A0FC031C7B624A
:109860003A4A7B6A101C191C09F018FA7B6AFB61E2
:10987000FB69002B44D0F969D6235A00314B081CF0
:10988000111C1A1CFFF72CFE3AE0314B181C09F092
:1098900005FA3AE02F4A7B68101C191C09F0FEF902
:1098A00033E02D4A7B68101C191C09F0F7F97B681E
:1098B000BB61BB69002B25D0B969284A214B081C24
:1098C000111C1A1CFFF70CFE1CE0254A7B68101CBB
:1098D000191C09F0E3F97B687B617B69002B13D0CD
:1098E0007969E1235A00174B081C111C1A1CFFF759
:1098F000F7FD09E0C04608E0C04606E0C04604E0C7
:10990000C04602E0C04600E0C0460023181CBD4629
:109910000AB080BD9C470200FE2C0020E62C0020EF
:10992000C42C002075280020402C00202446020072
:10993000C82C0020E82800206C4602009046020057
:10994000A301000018460200A42C0020B446020027
:10995000E4460200FC4602003C470200BD01000054
:109960006C47020080B588B000AFB9607A603B1CDC
:109970000F33021C1A700023FB61BB681B68BB61BC
:109980002DE0BA69FB69D2183B1C173312781A70A4
:10999000FB690133BA69D2183B1C163312781A706E
:1099A0003A1C16323B1C0F3312781B789A420FD1A7
:1099B000FB690233BA69D2187B681A603B1C173303
:1099C0001B789BB2013B9AB27B689A8000230DE022
:1099D0003B1C17331A78FB69D3180133FB61BB6852
:1099E0009B881A1CFB699A42CBD80523181CBD46DC
:1099F00008B080BD80B596B000AF78607B68043356
:109A0000BB647B681B88103B292B00D917E19A00A7
:109A1000914BD3181B689F46BB6C1A1C0B323B1C26
:109A20003C331A60BB6C9B7A1B06DB0EDBB21A1C44
:109A30003B1C3C339A803A1C3C323B1C343309209B
:109A4000111C1A1CFFF78EFF031C7B657B6D002B1E
:109A50000AD03A1C3C323B1C34330820111C1A1C1F
:109A6000FFF780FF031C7B657B6D002B00D0F0E0CF
:109A70003B1C34331B683A1C2032101C191C09F0A3
:109A800067F93B1C203300221A73744B1A683B1C85
:109A90002033101C191C09F051F9021C3B1C4733E0
:109AA00051424A411A703B1C463300221A7000236F
:109AB0003B6546E06A493A6D131C9B009B189B006E
:109AC0005B583A1C0C32101C191C09F041F93B1C64
:109AD0000C3300221A733A1C0C323B1C2033101C2E
:109AE000191C09F02BF9021C3B1C463351424A4118
:109AF0001A703B1C46331B78002B1FD0BB6C5B7A63
:109B000059B257483A6D131C9B009B189B00C31811
:109B10000433196052483A6D0821131C9B009B18AE
:109B20009B00C3185918BA6C02230431D2180723BA
:109B3000081C111C1A1C09F094F805E03B6D013358
:109B40003B653B6D042BB5DD0023FB6424E03B1C2F
:109B500047331B78002B1CD0424B1B78002B18D0AE
:109B6000FFF7C0FB031C7B653F4A7B6D101C191C73
:109B700009F094F81820FFF777FCBB6C991C3B4A5E
:109B80003B4B081C111C1A1CFFF7B0FB031C7B6528
:109B90005FE0FB6C0133FB643B1C34339B885B0848
:109BA0009BB21A1CFB6C9A42D1D852E0314B181C64
:109BB00009F0A8F8BB6C9B78022B49D12E4B1B787F
:109BC000012B45D12C4B02221A7000F05DFF3FE0C3
:109BD0002A4B181C09F096F8BB6C1A88BB6C023330
:109BE000101C191CFFF736FB031C7B6531E0244B6E
:109BF000181C09F087F82CE0224B181C09F082F899
:109C000027E0214B181C09F07DF822E01F4B181C9F
:109C100009F078F81DE01E4B181C09F073F818E0E5
:109C20001C4B181C09F06EF813E01B4B181C09F0B4
:109C300069F80EE0194B181C09F064F809E07B681C
:109C40001B88174A101C191C09F028F8C04600E0B0
:109C5000C046BD4616B080BD3C490200DC2800204D
:109C600078280020E42C0020E8470200B02C0020D7
:109C700000460200FC470200C92C002010480200E8
:109C80003848020058480200704802008C48020020
:109C9000B0480200D0480200F04802000C4902001F
:109CA0002849020080B582B000AF78607B68023B33
:109CB000012B09D8074B1B78002B07D0054B00223E
:109CC0001A7000F0E1FE01E0C04600E0C046BD466B
:109CD00002B080BDCA2C002080B582B000AF786091
:109CE0007B68181C07F086F8094A7B68101C191C51
:109CF00008F084FE074A7B68101C191C03F0D0F999
:109D00007B68181CFFF776FEBD4602B080BDC046DA
:109D1000402C0020A42C002080B582B000AF7860D9
:109D20007B68181C03F0ACFC7B68181CFFF7BAFFBB
:109D3000BD4602B080BDC04680B586B000AF1F4BA7
:109D40000D20191C4822002307F05AFF031C7B61D9
:109D50007B693B613B69002B07D03969184A194B75
:109D6000081C111C1A1CFFF7BBFB174B181C07F033
:109D7000A1FF031CFB60FB68BB60BB68002B07D026
:109D8000B968124A0F4B081C111C1A1CFFF7A8FBDC
:109D90000F4B181C07F0A2FF031CFB60FB687B60E5
:109DA0007B68002B07D079680A4A064B081C111CF7
:109DB0001A1CFFF795FBBD4606B080BD242D002080
:109DC000CD02000018460200D99C0100D10200001B
:109DD000199D0100D502000080B588B000AF03F0E6
:109DE000BDFF031CFB61FB69BB61BB69002B08D095
:109DF000B969B9239A00344B081C111C1A1CFFF7CF
:109E00006FFB3B1C00221A703B1C181C05F0F2FD76
:109E1000031CFB61FB697B617B69002B08D07969BE
:109E2000BB239A00284B081C111C1A1CFFF758FB77
:109E30003B1D0533181C00210522FEF70BFA3B1DC4
:109E4000224A1A603B1D02221A713B1D5A790121D8
:109E50000A435A713B1D5A7902218A435A713B1DAC
:109E60005A791C218A430C210A435A713B1D5A79A5
:109E700020218A435A713B1D07229A713B1D1022F3
:109E8000DA713B1D1A7A01210A431A723B1D1A7AB4
:109E900002210A431A720E4A3B1D101C191C05F0C0
:109EA00071FE031CFB61FB693B613B69002B07D022
:109EB0003969084A044B081C111C1A1CFFF710FBD7
:109EC000BD4608B080BDC04618460200419701005B
:109ED000C02C00200203000080B500AF1820FFF75F
:109EE0008DFA1820FFF78AFA1820FFF787FA072063
:109EF000FFF784FA0620FFF781FA1A200321FFF703
:109F00008DFA18200321FFF789FA19200321FFF7A2
:109F100085FA15200321FFF781FA18200321FFF7A6
:109F20007DFABD4680BDC04680B500AF1520FFF765
:109F3000ABFA031C5A425341DBB21A1C484B1A704D
:109F40001820FFF7A1FA031C5A425341DBB21A1C36
:109F5000444B1A701920FFF797FA031C5A425341D9
:109F6000DBB21A1C404B1A701A20FFF78DFA031C43
:109F70005A425341DBB21A1C3C4B1A70384B1A78C8
:109F8000384B1B781343DAB2374B1B781343DAB2E2
:109F9000364B1B781343DAB2354B1A70354B1B78AE
:109FA0000133DAB2334B1A702D4B1B78002B05D0DE
:109FB000314B1B780133DAB22F4B1A70294B1B78C7
:109FC000002B05D02D4B1B780133DAB22B4B1A70C6
:109FD000254B1B78002B05D0294B1B780133DAB2B7
:109FE000274B1A70214B1B78002B05D0254B1B7873
:109FF0000133DAB2234B1A70234B1B78012B29D182
:10A000001B4B1B78002B25D11A4B1A781F4B1A704B
:10A01000184B00221A70184B1A781D4B1A70174BE8
:10A020001A781B4B5A70164B1A78194B9A70154BAD
:10A030001A78174BDA70174B01221A700E4B002258
:10A040001A700E4B00221A700D4B00221A700D4B25
:10A0500000221A70064B1A780B4B1A70BD4680BD51
:10A06000B6310020AA310020843100209031002038
:10A0700085310020B431002091310020A931002029
:10A08000B13100209F310020B0310020A8310020E4
:10A09000B83100200C2D002080B582B000AF224BDB
:10A0A0001B68DA179B1853409AB2BB1DB4218A1A59
:10A0B0001A80BB1DBA1D128892081A80BB1D1B880E
:10A0C000002B04D0BB1DBA1D128801321A80BB1DA3
:10A0D0001B88092B02D9BB1D09221A80124B1B6851
:10A0E000002B07DDBB1D1B8860339BB29AB20F4B60
:10A0F0001A8006E0BB1D1B8840339BB29AB20B4B03
:10A100001A80094B1B68DA179B185340B422D31AE4
:10A11000042B06DC064B1B686D2B02DD034B002273
:10A120001A80BD4602B080BDA431002080310020DD
:10A13000AC31002080B582B000AF3B1D14221A80E4
:10A140001B4B1A683B1D1B88D31AD9175A184A4053
:10A15000BB1D1A80BB1D1B88002B04D0BB1DBA1D64
:10A16000128801321A80BB1D1B880C2B02D9BB1D23
:10A170000C221A800F4B1B68DA179B185340B4222D
:10A18000D31A1E2B0EDC3B1D1A88094B1B689A4202
:10A1900004DABB1D1A88084B1A8006E0064B002221
:10A1A0001A8002E0044B00221A80BD4602B080BD36
:10A1B0008C310020A43100208831002080B58CB083
:10A1C00000AF00237B628F4B1B78FB618D4B1B78AC
:10A1D000BB6100233B621EE08A4A3B6AD3181B78AE
:10A1E0001A1CFB699A4206DD3B6A7B62854A3B6A20
:10A1F000D3181B78FB61834A3B6AD3181B781A1C5F
:10A20000BB699A4204DA7F4A3B6AD3181B78BB6168
:10A210003B6A01333B623B6A032BDDDD00233B627B
:10A220000DE0784A3B6AD3181B781A1CBB69D11A17
:10A230003B1D3A6A9200D1503B6A01333B623B6A54
:10A24000032BEEDD7B6A012B35D002DC002B06D020
:10A25000B9E0022B58D0032B00D181E0B3E03B1DC5
:10A26000DA683B1D5B68D2183B1D1B68D318FB6284
:10A27000644BDB781A1C634B5B78D3185A10614B24
:10A280001B78D318FB61FB6A002B01D10123FB6211
:10A290003B1D5A683B1DDB68D31A7B617B695A22E0
:10A2A0005343181CF96A08F049FC031CBB62BB6AE3
:10A2B0005A3BBB6287E03B1D9A683B1D1B68D21866
:10A2C0003B1D5B68D318FB624E4B9B781A1C4D4BB1
:10A2D0001B78D3185A104B4B5B78D318FB61FB6A81
:10A2E000002B01D10123FB623B1D9A683B1D1B68BB
:10A2F000D31A7B617B695A225343181CF96A08F010
:10A300001DFC031CBB625EE03B1DDA683B1D5B6805
:10A31000D2183B1D9B68D318FB623A4BDB781A1CA2
:10A32000384B5B78D3185A10364B9B78D318FB61A7
:10A33000FB6A002B01D10123FB623B1DDA683B1D48
:10A340005B68D31A7B617B695A225343181CF96AF4
:10A3500008F0F4FB031CBB62BB6A5A33BB6232E0F9
:10A360003B1D9A683B1D1B68D2183B1DDB68D31848
:10A37000FB62244B9B781A1C224B1B78D3185A1073
:10A38000204BDB78D318FB61FB6A002B01D1012342
:10A39000FB623B1D1A683B1D9B68D31A7B617B697E
:10A3A0005A225343181CF96A08F0C8FB031CBB620D
:10A3B000BB6AB433BB62BB6AB42B03DDBB6A693BC7
:10A3C000FF3BBB62C046104BBA6A1A600F4BFA697A
:10A3D0001A600E4B1A680E4B1B689A4206DB0D4B37
:10A3E00001221A700C4B05221A6005E0074B1B680E
:10A3F0008C22D21A084B1A600123181CBD460CB0DF
:10A4000080BDC046B8310020A4310020AC3100200E
:10A41000F4280020D42C00208C31002080B584B09A
:10A4200000AF021CBB1D1A801223FB60324B0122BD
:10A430001A70324B1B780133DAB2304B1A7000209D
:10A440000121FEF7F5FC2D4B1B780020191CFEF7AF
:10A4500049FDBB1D00215A5E29480821131C9B00A1
:10A460009B189B00C3185B181B79042B2DD0254B20
:10A470001A7802218A431A70FEF734FF031CFB602E
:10A48000BB1D00215A5E131C9B009B189B001A1CCD
:10A4900008321B4BD318191D1A4A1B4B081C111CE0
:10A4A0001A1CFEF723FF031CFB60FB68082B0CD172
:10A4B000FB68BB60BB68002B07D0B968134A144B1C
:10A4C000081C111C1A1CFFF70BF8124AFB68101C21
:10A4D000191C08F0E3FB96235B00181C01F0E0FF59
:10A4E000FFF712F801F02EFB021C0B4B1A60FB6801
:10A4F000181CBD4604B080BDE42C0020FC2C0020BC
:10A5000078280020B02C0020004602001304000030
:10A5100018460200E4490200F82C002080B582B001
:10A5200000AF124B1B78092B03D1114B08221A7074
:10A5300018E03B1D47221A700C4B1A783B1D5A70CD
:10A540003B1D05229A703B1D1B78181C01F0DEFE96
:10A550003B1D5B78181C01F0D9FE3B1D9B78181C35
:10A5600001F0D4FEBD4602B080BDC046E428002004
:10A57000EC2C002080B586B000AF021CFB1D1A70C9
:10A580003B1C083300221A703B1C083300225A700F
:10A590003B1C083300229A70B64B1B78032B13D157
:10A5A000FB1D1B78203B612B00D95CE19A00B24B6C
:10A5B000D3181B689F46B14BFA1D12781A70AD4B29
:10A5C00000221A70C04651E1AA4B1B78002B08D11B
:10A5D000FB1D1B789AB2AA4B1A80A64B01221A7057
:10A5E00044E1A44B1B78012B00D03FE1FB1D1B78FD
:10A5F0009AB2A44B1A809F4B03221A700520FEF7D3
:10A6000055FF9E4B1B781A1C9D4B1B881BB29E4905
:10A61000081C111C1A1C08F041FB984B1B78203BAE
:10A62000612B00D921E19A00984BD3181B689F46F3
:10A63000322001F035FF3B1C083346221A703B1CC8
:10A64000083300225A703B1C083300229A703B1CCE
:10A650000833181CFEF7BAFF08E1894B1B881BB2B0
:10A660005A1E8B49131C9B009B189B005A58894B00
:10A670001A60834B1B88DAB2874B1A70804B1B8899
:10A680009BB2013B9BB29BB21BB2181CFFF7C6FEEC
:10A69000824B181C08F036FBE8E0FEF7AFFFE5E060
:10A6A0003B1C083345221A703B1C083307225A70A2
:10A6B0003B1C083300229A703B1C0833181CFEF721
:10A6C00085FF782001F0ECFE782001F0E9FECDE076
:10A6D000652001F01BFE002001F018FE002001F0B3
:10A6E00015FEC3E0662001F011FE002001F00EFE11
:10A6F000002001F00BFEB9E0812001F007FE604B65
:10A700001B88DBB2181C01F001FE5E4B1B88DBB21C
:10A71000181C01F0FBFDA9E0FFF700FFA6E03B1CC1
:10A72000083320221A70564B1B88DAB23B1C0833C0
:10A730005A703B1C083300229A70594A3B1C08335C
:10A74000101C191C0322FEF749F9031C3B613B69ED
:10A75000FB60FB68002B07D0F968524A524B081C7B
:10A76000111C1A1CFEF7BCFE454B1B881AB24F4940
:10A770003B69081C111C1A1C08F090FA76E0404B4B
:10A780001B881AB24A4B1A6070E03B1C0833422205
:10A790001A703B1C083300225A703B1C08330022FD
:10A7A0009A703B1C0833181CFEF710FF414B181C15
:10A7B00001F0CAFD5AE0404B181C01F0C5FD55E000
:10A7C0003B1C173300221A7022E0352001F09EFD59
:10A7D0003B1C17331B78181C0021FEF76FFB031C72
:10A7E000181C01F093FD3B1C17331B78181C01212A
:10A7F000FEF764FB031C181C01F088FD282001F003
:10A800004FFE3B1C17333A1C1732127801321A7074
:10A810003B1C17331B78272BD7D927E03B1C16335B
:10A8200000221A7019E0362001F070FD3B1C16332F
:10A830001B78181CFEF76CFB031C181C01F066FD4E
:10A84000002001F063FD282001F02AFE3B1C163396
:10A850003A1C1632127801321A703B1C16331B78E0
:10A86000092BE0D902E0C04600E0C046BD4606B074
:10A8700080BDC046EC2800206C4A02008A310020CE
:10A880008831002080310020004A0200F44B020091
:10A8900078280020DC280020E4280020244A020038
:10A8A000D82C0020DF04000018460200384A0200BD
:10A8B000F42800204C4A02005C4A020080B500AF38
:10A8C000084B1B685A1C074B1A60074B1B78002B60
:10A8D00001D0FFF729FB054AA0235B000021D150DE
:10A8E000BD4680BD082D0020E42C002000A00040C3
:10A8F00080B582B000AFFEF749FC031C7B607B682B
:10A900003B603B68002B07D03968054A054B081CA3
:10A91000111C1A1CFEF7E4FDBD4602B080BDC04606
:10A92000270500001846020080B586B000AF7860A9
:10A9300039603B681B78012B02D0022B14D028E031
:10A940007B68181C02F02AFC031C7B617B693B615D
:10A950003B69002B1FD03969124A134B081C111C8C
:10A960001A1CFEF7BDFD16E03B1C0F3301221A70C6
:10A970003B1C0F331B7801225340DBB2002B0CD061
:10A98000A823DA00084B0020111C1A1CFEF7A8FDB2
:10A9900003E0C04602E0C04600E0C046BD4606B047
:10A9A00080BDC046390500001846020080B584B05D
:10A9B00000AF0D4B7B600D4A3B1D101C191C02F0B3
:10A9C00037FB031CFB60FB68BB60BB68002B07D038
:10A9D000B968074A074B081C111C1A1CFEF780FDBA
:10A9E000BD4604B080BDC04629A90100A42C0020AA
:10A9F000520500001846020080B584B000AF104B2D
:10AA00007B60104A3B1D101C191CFDF713FF031C33
:10AA1000FB600D4AFB68101C191C08F03FF9FB682D
:10AA2000BB60BB68002B08D0B968AC23DA00074BC9
:10AA3000081C111C1A1CFEF753FDBD4604B080BD56
:10AA4000D1960100D82C00207C4D0200184602004F
:10AA500080B582B000AF07F007FF031C7B607B6806
:10AA60003B603B68002B07D03968054A054B081C42
:10AA7000111C1A1CFEF734FDBD4602B080BDC04655
:10AA8000690500001846020080B59AB000AF3B1D72
:10AA9000181C03F0F7FD031C7B667B6E3B663B6E68
:10AAA000002B07D0396E474A474B081C111C1A1C53
:10AAB000FEF716FD7B68002B03D0444B01221A7071
:10AAC0007CE03B1C483308221A713B1C48330022AF
:10AAD0001A733B1C48333A1C28321A603B1C48331B
:10AAE0003A1C08329A603A4A3B1C4833101C191C25
:10AAF00005F05AFA031C7B667B6EFB65FB6D002B31
:10AB000007D0F96D334A304B081C111C1A1CFEF794
:10AB1000E7FC3B1C48331B79002B04D13B1C48331A
:10AB20001B7B002B03D02C4B1B78012B16D02B4BFF
:10AB30001A7801218A431A70284B1A7802218A4315
:10AB40001A70264BA0221A81244B50225A81234B83
:10AB500000225A60214B00229A8119E01F4B1A787B
:10AB600001218A431A701D4B1A7802210A431A7078
:10AB70001A4BA0221A81194B50225A81174B3A1CAA
:10AB800048325A60154B1E229A81134B01221A70CB
:10AB9000124B181CFEF7A2FB031C7B667B6EBB6589
:10ABA000BB6D002B07D0B96D0D4A074B081C111C5B
:10ABB0001A1CFEF795FC1820FEF746FCBD461AB09D
:10ABC00080BDC0467905000018460200CA2C00204E
:10ABD000C02C002089050000C92C0020B02C0020CA
:10ABE000A505000080B582B002AF002300931920B4
:10ABF00000211222022301F0D1FB1420FEF7FEFBFC
:10AC0000064AC1239B000421D15002200321FEF7F4
:10AC1000BFF90220FEF78EF9BD4680BD002000403E
:10AC200098B500AF0D4B1B781C1C01F01BFB031CDF
:10AC30001A1C0B4B1A55094B1B780133DAB2074B20
:10AC40001A70064B1B78013B054AD35C181CFFF7B2
:10AC500091FC024B00221A70BD4698BD0D2D0020BC
:10AC6000102D0020F0B587B004AF2F4B1B78002BC0
:10AC70003ED02D4B00221A702C4B19682C482D4ABF
:10AC80002D4B2E4C009400F0ABFB021CFB1D511E03
:10AC90008A411A70FB1D1B78002B09D0FEF7AEFC11
:10ACA000274B05221A70274B181C08F02BF838E0A8
:10ACB0001F4B1B78191C1E4B5B781A1C1C4B9B7876
:10ACC0001B48C078061C1B48008805B21A4800883B
:10ACD00004B21D4800960195029407F0DFFF00F0D2
:10ACE00031FF031C1A1C194B1A60282001F0D8FBF5
:10ACF00000F028FF021C164B1B68D21A154B9A4213
:10AD00000FD900F01FFF021C114B1A60124B0922D1
:10AD10001A7000F017FF031C104A101C191C07F0D2
:10AD2000BDFFBD4603B0F0BD0C2D0020F42800206F
:10AD3000B83100208831002080310020943100207B
:10AD4000EC2C0020A04D0200B04D0200CC2C0020C5
:10AD5000F82C002080A90300E4280020D04D020038
:10AD600080B582B000AF1D4B181C07F0CBFF1C4B09
:10AD7000B4221A601B4B00221A701B4B00221A705F
:10AD80001A4B1B78002B25D0962001F089FB184B1D
:10AD900000221A703B1D42221A703B1D00225A707D
:10ADA0003B1D00229A703B1D181CFEF70FFC114B37
:10ADB00000221A700F4B00225A700E4B00229A701C
:10ADC0000C4B0022DA700C4B181C07F09BFF084B51
:10ADD00000221A70BD4602B080BDC046F44D02008C
:10ADE000E82800200C2D0020E42C002075280020ED
:10ADF000EC2C0020B83100200C4E020090B587B03A
:10AE000000AFDB4B1B78042B00D9AAE19A00D94B89
:10AE1000D3181B689F46D64B00225A70D44B002291
:10AE20009A70D34B0022DA70D14B00221A71D04BAA
:10AE300003221A7000F086FE021CCF4B1A60CE4B24
:10AE40001A68CE4B1A603B1C173300221A7012E0AE
:10AE50003B1C17331A78CA49131C9B009B189B0094
:10AE6000CB18083300221A603B1C17333A1C1732E8
:10AE7000127801321A703B1C17331B78042BE7D968
:10AE80006FE1C04B1B78002B00D167E1B84B5B78BA
:10AE9000042B00D87AE0B64B04221A70BA4B002279
:10AEA0001A703B1C163300221A7006E03B1C163346
:10AEB0003A1C1632127801321A703B1C16331B787A
:10AEC000042BF3D900233B613B1C0F3300221A7083
:10AED0003B1C0E3300221A7026E03B1C0E331A78FE
:10AEE000A749131C9B009B189B00CB1808331A68BA
:10AEF0003B699A4211D33B1C0E331A78A049131CAC
:10AF00009B009B189B00CB1808331B683B613B1CC4
:10AF10000F333A1C0E3212781A703B1C0E333A1C57
:10AF20000E32127801321A703B1C0E331B78042B40
:10AF3000D3D93B1C0F333A1C0F32127801321A70EE
:10AF4000924B3A1C0F3212781A703B69002B02D1D7
:10AF50008E4B09221A703B1C47221A703B1C3A1C6C
:10AF60000F3212785A703B1C05229A703B1C1B78DA
:10AF7000181C01F0CBF93B1C5B78181C01F0C6F9DA
:10AF80003B1C9B78181C01F0C1F9E7E0784B5B781B
:10AF90001A1C7B480821131C9B009B189B00C3189C
:10AFA0005B181B79042B24D0052001F079FA704B33
:10AFB0005B781A1C7249131C9B009B189B005A5803
:10AFC000734B1A606A4B5B781BB2181CFFF726FAAA
:10AFD000031CBB6000F0B6FD021C684B1A60644B9A
:10AFE0005B780133DAB2624B5A70614B00221A70FF
:10AFF000B4E05F4B5B780133DAB25D4B5A70ADE081
:10B00000604B1B7801225340DBB2002B03D0584B1E
:10B0100001221A70A4E0564B1B790133DAB2544B6B
:10B020001A71052001F03CFA514B1B79032B00D813
:10B0300096E04F4BDB780133DAB24D4BDA704C4B74
:10B04000DB78022B09D94A4B0022DA70484B0022E8
:10B050001A71474B03221A7082E0454B00221A7185
:10B06000434B5B78013B9BB29BB21BB2181CFFF7B2
:10B07000D5F9031C7B6073E0464B1B78002B3DD059
:10B080003B4B9B78052B39D8424B00221A70384B2A
:10B090009B780133DAB2364B9A703B1C0D33002299
:10B0A0001A7022E0324B5B785A1E314B5B78591E86
:10B0B00033480B1C9B005B189B00C31808331968AE
:10B0C0003B1C0D331B783448C35CC9182C48131C37
:10B0D0009B009B189B00C318083319603B1C0D3361
:10B0E0003A1C0D32127801321A703B1C0D331B785A
:10B0F000032BD7D9052001F0D3F932E01C4B5B7844
:10B100005C1E1B4B5B785A1E1D49131C9B009B1831
:10B110009B00CB1808331B68181C182107F0C0FCD3
:10B12000031C1A1C1649231C9B001B199B00CB18DF
:10B1300008331A600E4B00229A700D4B02221A70CF
:10B14000FEF75CFA0DE00F4B1B78002B02D0084B8A
:10B1500003221A70142001F0A3F902E0C04600E0B7
:10B16000C046052001F09CF9BD4607B090BDC04621
:10B17000702800201C4E0200F02C0020F42C00202F
:10B180007828002075280020EC2C0020E4280020DE
:10B19000DC2800200C2D0020B831002080B500AF45
:10B1A0000A4B1B78072B0ED0082B02D0052B06D09C
:10B1B00002E0FFF723FE07E0FFF754FD04E0FFF78E
:10B1C000CFFDC04600E0C046BD4680BDEC2C00204F
:10B1D00080B500AFFFF706FDFEF77EFEFEF794F99F
:10B1E000FEF7AAFDFEF7F8FDFFF732FCFFF7DEFBE6
:10B1F000FFF702FC00F0E2FCFA235B00181C01F0F0
:10B200004FF90A4B181C07F049FD0720FEF71CF9FF
:10B210000620FEF729F9FFF737FCFFF769FBFFF778
:10B22000BDFF142001F03CF9F7E7C046304E0200A4
:10B2300080B582B002AF00230093192000211222B2
:10B24000022301F0ABF8BD4680BDC04680B582B098
:10B2500000AF786039607B68DBB2181C01F056F8EB
:10B260000023181CBD4602B080BDC04680B586B024
:10B2700000AFF860B9607A6000237B6109E07B6908
:10B28000BA68D3181B78181C01F040F87B690133A9
:10B290007B617A697B689A42F1DB7B68181CBD464A
:10B2A00006B080BD80B586B000AFF860B9607A6046
:10B2B0003B60FB68DA179B1853409AB23B1C16336D
:10B2C000B4218A1A1A803B1C16333A1C1632128893
:10B2D00092081A803B1C16331B88002B06D03B1C9F
:10B2E00016333A1C1632128801321A803B1C163370
:10B2F0001B88102B03D93B1C163310221A80FB68C5
:10B30000002B08DD3B1C16331B8860339BB29AB2BE
:10B310003B681A8007E03B1C16331B8840339BB206
:10B320009AB23B681A80FB68DA179B185340B42224
:10B33000D31A022B08DC7B681A1C0A3ABB689A42B3
:10B3400002DA3B6800221A80BD4606B080BDC046C6
:10B3500080B586B000AFF860B9607A603B1C1433EA
:10B360001E221A803B1C14331B88FA68D31AD91783
:10B370005A184A403B1C16331A803B1C16331B8854
:10B38000002B06D03B1C16333A1C163212880132B1
:10B390001A803B1C16331B880E2B03D93B1C16331B
:10B3A0000E221A80BB68DA179B185340B422D31AB6
:10B3B0001E2B0FDC3B1C14331A88FB689A4205DAFB
:10B3C0003B1C16331A887B681A8006E07B680022D3
:10B3D0001A8002E07B6800221A80BD4606B080BD5C
:10B3E00080B586B000AFF860B9607A603B603B1C06
:10B3F000173300221A70F968394A3A4B081C111C9D
:10B400001A1C00F05DF9374B1A68BB689A4203DBDF
:10B410003B1C173301221A70334AFB68101C191C9D
:10B42000042207F01EFC3B1C163300221A701FE09A
:10B430003B1C163319783B1C16331B782B4AD35C04
:10B440001A1C131C5B009A183B1C16331B782648E9
:10B45000C35CD318002B00DA03339B10DAB2224B03
:10B460005A543B1C16333A1C1632127801321A70A9
:10B470003B1C16331B78032BDAD91C4A1A4B101CC1
:10B48000191C042207F0EDFB1749154A154B081C3F
:10B49000111C1A1C00F014F9114B1A68144B1A6095
:10B4A000104B1B688C22D21A124B1A60104B186872
:10B4B0000C4B1968BA683B68FFF7F4FE0D4B19682E
:10B4C0000B4B1A687B68081C111C1A1CFFF740FF05
:10B4D0003B1C17331B78181CBD4606B080BDC04608
:10B4E000A4320020AC320020983200208C320020A0
:10B4F000A03200209432002090B587B000AFF860F1
:10B50000B9607A603B603B1C173300221A703B1C09
:10B51000163300221A70F968624A634B081C111C2A
:10B520001A1C00F0CDF8604B1A68BB689A4203DB26
:10B530003B1C163301221A705C4AFB68111C1A1C52
:10B540000823081C111C1A1C07F08BFB3B1C15332D
:10B5500000221A701DE03B1C15331C783B1C153370
:10B560001B78534AD35C9A003B1C15331B784F4918
:10B57000CB5CD318181C052107F0E0FA031CDAB2E3
:10B580004A4B1A553B1C15333A1C153212780132BE
:10B590001A703B1C15331B78072BDCD9444B434AEC
:10B5A00003CA03C33B1C143300221A7011E03B1C76
:10B5B00014331B783A1C1432127804323B49895CEC
:10B5C0003C4AD1543B1C14333A1C143212780132D9
:10B5D0001A703B1C14331B78032BE8D93549314AC8
:10B5E000314B081C111C1A1C00F06AF82E4B1B680A
:10B5F000352B26DD3B1C173301221A703B1C1333FD
:10B6000000221A7010E03B1C13331B783A1C1332D3
:10B6100012782649895C274AD1543B1C13333A1CC3
:10B620001332127801321A703B1C13331B78032B30
:10B63000E9D920491B4A1C4B081C111C1A1C00F09C
:10B640003FF8184B1A681C4B1A60174B1B688C226A
:10B65000D21A1A4B1A60184B1868134B1968BA683B
:10B660003B68FFF71FFE154B1968134B1A687B6880
:10B67000081C111C1A1CFFF76BFE3B1C17331B78B0
:10B68000002B06D03B1C16331B78002B01D0012366
:10B6900000E000231A1C01231340DBB2181CBD4636
:10B6A00007B090BDA4320020AC32002098320020B8
:10B6B0008C320020A8320020A032002094320020DA
:10B6C00080B590B000AFF860B9607A6000237B630A
:10B6D000FB681B78FB62FB681B78BB6200233B6343
:10B6E0001EE03B6BFA68D3181B781A1CFB6A9A425F
:10B6F00006DD3B6B7B633B6BFA68D3181B78FB6200
:10B700003B6BFA68D3181B781A1CBB6A9A4204DA9E
:10B710003B6BFA68D3181B78BB623B6B01333B630E
:10B720003B6B032BDDDD00233B630EE03B6BFA68D4
:10B73000D3181B781A1CBB6AD11A3B1C14333A6B02
:10B740009200D1503B6B01333B633B6B032BEDDD30
:10B750007B6B012B3CD002DC002B06D0D6E0022B09
:10B7600066D0032B00D197E0D0E03B1C1433DA689D
:10B770003B1C14335B68D2183B1C14331B68D31872
:10B78000FB63FB6803331B781A1CFB6801331B78CF
:10B79000D3185A10FB681B78D318FB62FB6B002B85
:10B7A00001D10123FB633B1C14335A683B1C143347
:10B7B000DB68D31A7B627B6A5A225343181CF96BED
:10B7C00007F0BCF9031CBB63BB6B5A3BBB639DE03A
:10B7D0003B1C14339A683B1C14331B68D2183B1C67
:10B7E00014335B68D318FB63FB6802331B781A1CA5
:10B7F000FB681B78D3185A10FB6801331B78D318E9
:10B80000FB62FB6B002B01D10123FB633B1C143358
:10B810009A683B1C14331B68D31A7B627B6A5A22DA
:10B820005343181CF96B07F089F9031CBB636DE0E7
:10B830003B1C1433DA683B1C14335B68D2183B1C86
:10B8400014339B68D318FB63FB6803331B781A1C03
:10B85000FB6801331B78D3185A10FB6802331B783E
:10B86000D318FB62FB6B002B01D10123FB633B1C54
:10B870001433DA683B1C14335B68D31A7B627B6A2F
:10B880005A225343181CF96B07F058F9031CBB6389
:10B89000BB6B5A33BB6339E03B1C14339A683B1CC7
:10B8A00014331B68D2183B1C1433DB68D318FB63BA
:10B8B000FB6802331B781A1CFB681B78D3185A10DC
:10B8C000FB6803331B78D318FB62FB6B002B01D1A1
:10B8D0000123FB633B1C14331A683B1C14339B6825
:10B8E000D31A7B627B6A5A225343181CF96B07F008
:10B8F00025F9031CBB63BB6BB433BB63BB6BB42BBD
:10B9000003DDBB6B693BFF3BBB63C046BB68BA6BE7
:10B910001A607B68FA6A1A600123181CBD4610B0D1
:10B9200080BDC0460000000080B582B000AF021CA0
:10B93000FB1D1A70064BFA1D1278111C1F220A40BB
:10B940000121081C9040021C1A60BD4602B080BD57
:10B9500000E100E0B0B582B000AF021C3960FB1D11
:10B960001A70FB1D1B787F2B32D93049FB1D1B78C9
:10B970001A1C0F231340083B98082C4AFB1D1B7808
:10B980001C1C0F232340083B9B0806339B00D31845
:10B990005B68FA1D1278141C03222240D200FF2497
:10B9A000251C95402A1CD2431A403B689C01FF236A
:10B9B0001C40FB1D1B781D1C03232B40DB00251C9A
:10B9C0009D402B1C1A43831D9B00CB185A6029E015
:10B9D000174BFA1D127852B292081549F81D0078DB
:10B9E00040B28008C03080004158F81D0078041C27
:10B9F00003202040C000FF24251C8540281CC04394
:10BA0000084039688C01FF210C40F91D09780D1C94
:10BA100003212940C900251C8D40291C0143C03247
:10BA20009200D150BD4602B0B0BDC04600ED00E06E
:10BA300000E100E0F0B500AF1549822252008A58BB
:10BA4000002A1AD0134A15685668104A0E49491937
:10BA500072411048016042600E4A1168526800202D
:10BA60000B1C8343FF20141C04400A4A13605460DB
:10BA7000074A82235B000021D150054AA0235B00C6
:10BA80000021D150BD46F0BD0000000100000000C3
:10BA900000100140702D0020B0B500AF104A114BCE
:10BAA000D358181C0023191C0F4B1A685B68121816
:10BAB0004B41101C191C094B074A07F0A1F8021C46
:10BAC0000B1C5904D40B0C43DD0B231C2C1C181C21
:10BAD000211CBD46B0BDC046E803000000000000C8
:10BAE0000010014004050000702D0020B0B500AF2B
:10BAF000114A124BD358181C0023191C104B1A68FA
:10BB00005B6812184B41101C191C0A4B084A07F0BD
:10BB100077F8021C0B1C5904D40B0C43DD0B231CBF
:10BB20002C1C181C211CBD46B0BDC046C046C046DA
:10BB300040420F000000000000100140040500001A
:10BB4000702D002098B500AFFFF7A6FF031C0C1C5A
:10BB5000181CBD4698BDC04698B500AFFFF7C6FF9C
:10BB6000031C0C1C181CBD4698BDC04680B584B093
:10BB700000AF7860FFF7E6FF031CFB60BD4604B032
:10BB800080BDC04680B582B000AF78600AE0C04694
:10BB9000C046C046C046C046C046C046C046C04675
:10BBA000C046C0467B685A1E9341DBB27A68013AB0
:10BBB0007A60002BEBD1BD4602B080BD80B500AFEE
:10BBC000104B01225A600F4B01229A600D4AA123AB
:10BBD000DB000021D1500B4AD1239B000221D15020
:10BBE000084AC1239B000221D15011200321FFF7F5
:10BBF000B1FE1120FFF798FE024B01221A60BD46EC
:10BC000080BDC0460010014080B582B000AF7860B2
:10BC1000C046C046C046C046C046C046C046C046F4
:10BC2000C046C046C046C046C046C0467B68013BD1
:10BC30007B60002BECD1BD4602B080BD80B500AF6B
:10BC4000A023DA05EE23DB001449D150A023DA0546
:10BC5000134B1249D150A023DA05A123DB00802128
:10BC60008905D150A023DA05A323DB0080218905B3
:10BC7000D150A023DA05A123DB0080214905D15052
:10BC8000A023DA05A323DB0080214905D15000F071
:10BC9000BDF8031C181CBD4680BDC0460C06000044
:10BCA0007407000090B585B000AF3960111C1A1CF4
:10BCB000FB1D1870BB1D19707B1D1A703B1C0F33C8
:10BCC00001221A703B1C0F331C7800F00FF9031C83
:10BCD0001A1C22403B1C0F33511E8A411A703B1C18
:10BCE0000F331C78FB1D1B78181C00F053F9031C44
:10BCF0001A1C22403B1C0F33511E8A411A70FB1D37
:10BD00001A78012313404ED027E0BB1D1B78002B6F
:10BD100010D13B1C0F331C783B68181C002100F02D
:10BD2000C7F9031C1A1C22403B1C0F33511E8A41C9
:10BD30001A700FE03B1C0F331C783B68181C012164
:10BD400000F0B6F9031C1A1C22403B1C0F33511E95
:10BD50008A411A703B6801333B60BB1D1B785A1E39
:10BD60009341DBB2BA1DB91D097801391170002B5E
:10BD70002BD03B1C0F331B78002BC6D125E03B1C7E
:10BD80000F331C783B681B78181C00F003F9031C68
:10BD90001A1C22403B1C0F33511E8A411A703B680B
:10BDA00001333B6000E0C046BB1D1B785A1E934127
:10BDB000DBB2BA1DB91D097801391170002B04D00E
:10BDC0003B1C0F331B78002BD9D17B1D1B78002B1C
:10BDD00007D13B1C0F331B7801225340DBB2002BF1
:10BDE0000CD03B1C0F331C7800F0AEF8031C1A1C5F
:10BDF00022403B1C0F33511E8A411A703B1C0F33EB
:10BE00001B78181CBD4605B090BDC04680B582B0F9
:10BE100000AFA023DA05A123DB0080214905D15022
:10BE2000A023DA05A123DB0080218905D15004205D
:10BE3000FFF7EAFEA023DA05A223DB00D3581A0F8E
:10BE4000012313400CD0A023DA05A223DB00D35832
:10BE50005A0F0123134003D0FB1D01221A703CE04E
:10BE6000A023DA05A223DB00D3585A0F0123134085
:10BE700030D0FB1D00221A7012233B6020E0A0236B
:10BE8000DA05194B80218905D1500420FFF7BCFE4B
:10BE9000A023DA05A123DB0080218905D1500420ED
:10BEA000FFF7B2FEA023DA05A223DB00D3581A0F56
:10BEB0000123134004D0FB1D01221A70C0460CE080
:10BEC0003B685A1E9341DBB23A68013A3A60002B54
:10BED000D5D102E0FB1D00221A70FB1D1B78181C37
:10BEE000BD4602B080BDC0460C05000080B500AF65
:10BEF000A023DA05A123DB0080214905D1500420CD
:10BF0000FFF782FE00F054F9031C01225340DBB21C
:10BF1000002B01D0002312E0A023DA05094B802179
:10BF20004905D1500420FFF76FFEA023DA05054B29
:10BF300080218905D1500420FFF766FE0123181CDB
:10BF4000BD4680BD0C05000080B500AFA023DA051A
:10BF50000F4B80214905D1500420FFF755FE00F01A
:10BF600027F9031C01225340DBB2002B01D0002330
:10BF70000AE0A023DA05A123DB0080214905D15086
:10BF80000420FFF741FE0123181CBD4680BDC046BA
:10BF90000C05000090B585B000AF78603B1C0F33F6
:10BFA00001221A70A023DA05A323DB0080214905B2
:10BFB000D1508023BB602AE0A023DA053A4B8021D0
:10BFC0008905D1500420FFF71FFE7B68BA68134033
:10BFD00007D0A023DA05A123DB0080214905D15039
:10BFE00005E0A023DA05304B80214905D15000F04F
:10BFF000DFF8031C01225340DBB2002B04D03B1CB2
:10C000000F3300221A7005E0BB685B08BB60BB6899
:10C01000002BD1D1A023DA05234B80218905D150F3
:10C020000420FFF7F1FDA023DA05204B802149050C
:10C03000D1500420FFF7E8FD3B1C0F331C7800F0C3
:10C04000B7F8031C1A1C22403B1C0F33511E8A41B7
:10C050001A703B1C0F331B78A022D105A222D200FC
:10C060008A58110F01220A4051424A41D2B21A4065
:10C070003B1C0F33511E8A411A70A023DA050A4B6C
:10C0800080218905D1500420FFF7BEFDA023DA05E9
:10C09000A323DB0080214905D1503B1C0F331B78C3
:10C0A000181CBD4605B090BD0C0500001C05000025
:10C0B00080B586B000AF78600A1CFB1C1A700023A4
:10C0C0007B613B1C133301221A70A023DA05364B27
:10C0D00080214905D1508023FB6025E000F068F8FD
:10C0E000031C01225340DBB2002B04D03B1C133352
:10C0F00000221A701BE0A023DA05A223DB00D3582C
:10C100001A0F0123134003D07A69FB6813437B6144
:10C11000A023DA05254B80218905D1500420FFF7A3
:10C1200073FDFB685B08FB60FB68002BD6D1A02386
:10C13000DA05A323DB0080214905D1507B69DAB2FF
:10C140007B681A70FB1C1B78002B06D0A023DA0535
:10C15000164B80214905D15006E0A023DA05A12322
:10C16000DB0080214905D1500420FFF74DFD00F090
:10C170001FF8031C01225340DBB2002B03D03B1CF1
:10C18000133300221A70A023DA05084B8021890599
:10C19000D1500420FFF738FD3B1C13331B78181CCB
:10C1A000BD4606B080BDC0461C0500000C05000061
:10C1B00080B500AFA023DA05A123DB00802189052B
:10C1C000D1500420FFF720FDC046A023DA05A223AA
:10C1D000DB00D3585A0F01231340F6D00123181C5B
:10C1E000BD4680BD80B582B000AF7860C046C04615
:10C1F000C046C046C046C046C046C046C046C0460F
:10C20000C046C046C046C0467B68013B7B60002BF1
:10C21000ECD1BD4602B080BD80B582B000AF786081
:10C22000A023DB057A68C132FF3292000321D1508E
:10C23000BD4602B080BDC04680B582B000AF786018
:10C240000A1CFB1C1A70A023DB05FA1C1278920052
:10C25000111C7A68C132FF329200D150BD4602B043
:10C2600080BDC04680B500AFC046094A84235B004C
:10C27000D358012BF9D1064A84235B000021D15009
:10C28000034AA323DB00D358DBB2181CBD4680BD94
:10C290000020004080B584B000AF786039603B1C5E
:10C2A0000F3301221A7013E07B68DB43DB0FDBB234
:10C2B0007A68013A7A60002B05D0FA239B00181C9B
:10C2C000FFF790FF04E03B1C0F3300221A7005E0DB
:10C2D0000D4A84235B00D358012BE5D17B68002BEA
:10C2E0000BDB094A84235B000021D150064AA323BB
:10C2F000DB00D358DAB23B681A703B1C0F331B7853
:10C30000181CBD4604B080BD0020004080B582B03E
:10C3100000AF021CFB1D1A70094AFB1D1978094B5E
:10C32000D150C046064A8E235B00D358012BF9D169
:10C33000034A8E235B000021D150BD4602B080BD70
:10C34000002000401C05000080B584B000AF78607C
:10C350000023FB607A68FB68D2183B1C0B33127811
:10C360001A70FB680133FB600FE03B1C0B331B783A
:10C37000181CFFF7CBFF7A68FB68D2183B1C0B3305
:10C3800012781A70FB680133FB603B1C0B331B787F
:10C39000002BEAD1BD4604B080BDC04690B583B045
:10C3A00000AF041C081C111C1A1CFB1D1C70BB1DBB
:10C3B00018707B1D19703B1D1A70BB1D1B78181C53
:10C3C000FFF72AFF3B1D1B78181C0021FFF734FFE5
:10C3D000204ABB1D1978204BD1501E4A3B1D1978AD
:10C3E0001E4BD1503B1C18331B78002B1AD0FB1D61
:10C3F0001B78181CFFF710FF7B1D1B78181C0021F1
:10C40000FFF71AFF134A7B1D1978A223DB00D150D6
:10C41000104AFB1D1978A123DB00D1500D4A104BA7
:10C420000121D1500B4A0F4B0F49D150094AA0238B
:10C43000DB000421D150074B01229A60054B0122F9
:10C440001A60044A84235B000021D150BD4603B02A
:10C4500090BDC046002000400C05000014050000FF
:10C460006C0500002405000000E0D70180B582B013
:10C4700000AF7860C046C046C046C046C046C04611
:10C48000C046C046C046C046C046C046C046C0467C
:10C490007B68013B7B60002BECD1BD4602B080BDC8
:10C4A00080B582B000AF786006E07B68013B7B60BE
:10C4B000044B181CFFF7DAFF7B68002BF5D1BD4653
:10C4C00002B080BDE703000080B582B000AF021C5F
:10C4D000FB1D1A70064BFA1D1278111C1F220A4010
:10C4E0000121081C9040021C1A60BD4602B080BDAC
:10C4F00000E100E080B582B000AF021CFB1D1A70A5
:10C50000084AFB1D1B78191C1F230B400121081C26
:10C510009840031C191CC0235B00D150BD4602B0DB
:10C5200080BDC04600E100E0B0B582B000AF021CA3
:10C530003960FB1D1A70FB1D1B787F2B32D93049E7
:10C54000FB1D1B781A1C0F231340083B98082C4A2C
:10C55000FB1D1B781C1C0F232340083B9B08063344
:10C560009B00D3185B68FA1D1278141C032222402A
:10C57000D200FF24251C95402A1CD2431A403B6858
:10C580009C01FF231C40FB1D1B781D1C03232B401B
:10C59000DB00251C9D402B1C1A43831D9B00CB18E0
:10C5A0005A6029E0174BFA1D127852B292081549C9
:10C5B000F81D007840B28008C03080004158F81D56
:10C5C0000078041C03202040C000FF24251C854067
:10C5D000281CC043084039688C01FF210C40F91D1C
:10C5E00009780D1C03212940C900251C8D40291CF8
:10C5F0000143C0329200D150BD4602B0B0BDC0462A
:10C6000000ED00E000E100E080B582B000AF7860AE
:10C610007A68032313405A425341DBB2181CBD46CB
:10C6200002B080BD80B586B000AF7860396000236D
:10C630007B6145E07B690122111C99400B1CFB606A
:10C640003B68FA68134038D07B68DB68FA681340AF
:10C6500009D180239B023B617B68DA68FB681A433F
:10C660007B68DA6009E0C0239B023B617B68DB6882
:10C67000FA68D2431A407B68DA60A023DB05A02267
:10C68000D2057969C131FF31890089580F4A1140BB
:10C690007A69C132FF329200D150A023DB05A0227B
:10C6A000D2057969C131FF31890089583A6911434E
:10C6B0007A69C132FF329200D1507B6901337B61CC
:10C6C0007B691F2BB6D9BD4606B080BDFFFFFCFFBE
:10C6D00080B588B000AFA023DA05A223DB00D358D1
:10C6E000BB613E4ABE235B000021D1503B1C1F337F
:10C6F00000221A7068E03A4B19683B1C1F331A7805
:10C70000131C9B009B189B00CB183B613B1C1F33E9
:10C710001B780122111C99400B1C1A1C314B1B6801
:10C7200013404AD03B69DB68DA43BB695A403B6936
:10C730001B6813407B613A697B69101C191CFFF769
:10C7400071FFA023DA05A223DB00D258BB69534056
:10C75000FB60FB68002B16D0BA69FB681343BB6112
:10C760003B69DB68DA43BB695A403B691B6813408D
:10C77000BB603A69BB68101C191CFFF753FF7A694C
:10C78000BB6813437B61BB69DA433B699B68134019
:10C790007A6913407B603B695B68BA6913407A69C8
:10C7A00013403B603A687B68134306D03B691B69C2
:10C7B00039687A68081C111C98473B1C1F333A1CC7
:10C7C0001F32127801321A70074B1B783A1C1F3245
:10C7D00012789A428FD3BD4608B080BD00600040F9
:10C7E000802D0020782D00207D2D002080B584B084
:10C7F00000AF021CFB1D1A700023FB6031E01C4BD4
:10C800001968FB1D1A78131C9B009B189B00CB1802
:10C810001B68FA680121081C9040021C13401DD0BF
:10C82000A023DB05A022D205F968C131FF318900C0
:10C830008958104A1140FA68C132FF329200D15033
:10C84000A023DB05A022D205F968C131FF318900A0
:10C850008958FA68C132FF329200D150FB68013327
:10C86000FB60FB681F2BCAD9BD4604B080BDC04623
:10C87000802D0020FFFFFCFF80B582B000AF021CBE
:10C880003960FB1D1A703B68002B01D1072337E08C
:10C890003B68181CFFF7B8FE031C01225340DBB2B3
:10C8A000002B01D007232BE0174B3A681A60174B77
:10C8B000FA1D12781A70164B00221A70154B0022BE
:10C8C0001A60114B1968114B1B781A1C131C9B0022
:10C8D0009B189B00081C00211A1CFBF7BBFC0E4A8E
:10C8E000C2239B0001214942D1500620FFF702FEDE
:10C8F00006200121FFF718FE0620FFF7E5FD0023C3
:10C90000181CBD4602B080BD802D00207C2D00206B
:10C910007D2D0020782D00200060004080B584B07F
:10C9200000AFF860B9607A603B602C4B1B68002B4D
:10C9300001D108234DE03B68002B01D1072348E0DB
:10C94000274B1A78274B1B789A4201D3042340E0E7
:10C95000224B1968224B1B781A1C131C9B009B1836
:10C960009B00CB18B9687A680A431A601B4B196898
:10C970001B4B1B781A1C131C9B009B189B00CB188D
:10C98000BA685A60154B1968154B1B781A1C131C92
:10C990009B009B189B00CB187A689A600F4B196814
:10C9A0000F4B1B781A1C131C9B009B189B00CB1869
:10C9B0003A681A610A4B1B78FA68191C1170013326
:10C9C000DAB2074B1A70FB681B78181CFFF70EFFD2
:10C9D0000023181CBD4604B080BDC046802D002039
:10C9E0007D2D00207C2D002080B586B000AF021C7C
:10C9F000FB1D1A704D4B1B68002B01D1082391E0E1
:10CA00004B4B1B78FA1D12789A4201D3072389E019
:10CA1000484ABE235B000021D150A023DA05A2239F
:10CA2000DB00D358FB60444B1B68002B05D1414A07
:10CA3000C1239B0080210906D150FB1D1B780122D8
:10CA4000111C99400B1C1A1C3B4B1B681A433A4B98
:10CA50001A60364B1968FB1D1A78131C9B009B1833
:10CA60009B00CB180022DA6000237B6156E07B69D3
:10CA70000122111C99400B1CBB602C4B1968FB1D3B
:10CA80001A78131C9B009B189B00CB181B68BA6874
:10CA9000134040D0FB68BA68134003D0C0239B0208
:10CAA0003B6118E080239B023B61204B1968FB1D12
:10CAB0001A78131C9B009B189B00CA181B4B186804
:10CAC000FB1D19780B1C9B005B189B00C318D968D1
:10CAD000BB680B43D360A023DB05A022D205796994
:10CAE000C131FF3189008958144A11407A69C13235
:10CAF000FF329200D150A023DB05A022D205796934
:10CB0000C131FF31890089583A6911437A69C132CC
:10CB1000FF329200D1507B6901337B617B691F2B0F
:10CB2000A5D90023181CBD4606B080BD802D00206D
:10CB30007D2D002000600040782D0020FFFFFCFFCD
:10CB400080B582B000AF021CFB1D1A70164B1B682B
:10CB5000002B01D1082323E0144B1B78FA1D127817
:10CB60009A4201D307231BE0FB1D1B78181CFFF71B
:10CB70003DFEFB1D1B780122111C99400B1CDA4362
:10CB80000B4B1B681A400A4B1A60094B1B68002BA1
:10CB900005D1084AC2239B0080210906D1500023F9
:10CBA000181CBD4602B080BD802D00207D2D0020C8
:10CBB000782D00200060004080B584B000AF021CDA
:10CBC0003960FB1D1A70134B1B68002B01D1082321
:10CBD0001CE0114B1B78FA1D12789A4201D30723EF
:10CBE00014E00C4B1968FB1D1A78131C9B009B1852
:10CBF0009B00CB18FB60A023DA05A223DB00D258F0
:10CC0000FB681B681A403B681A600023181CBD466D
:10CC100004B080BD802D00207D2D002070DF704786
:10CC2000181CC04671DF7047181CC04672DF704781
:10CC3000181CC04673DF7047181CC04674DF70476D
:10CC4000181CC04675DF7047181CC04676DF704759
:10CC5000181CC04677DF7047181CC04678DF704745
:10CC6000181CC04679DF7047181CC0467ADF704731
:10CC7000181CC0467BDF7047181CC0467CDF70471D
:10CC8000181CC0467DDF7047181CC0467EDF704709
:10CC9000181CC0467FDF7047181CC04680DF7047F5
:10CCA000181CC04681DF7047181CC04682DF7047E1
:10CCB000181CC04683DF7047181CC04684DF7047CD
:10CCC000181CC04685DF7047181CC04686DF7047B9
:10CCD000181CC04687DF7047181CC04688DF7047A5
:10CCE000181CC04689DF7047181CC046B0DF70476B
:10CCF000181CC046B1DF7047181CC046B2DF704731
:10CD0000181CC04690DF7047181CC04691DF704762
:10CD1000181CC04692DF7047181CC04693DF70474E
:10CD2000181CC04694DF7047181CC04695DF70473A
:10CD3000181CC04696DF7047181CC04697DF704726
:10CD4000181CC04698DF7047181CC046A0DF70470B
:10CD5000181CC046A1DF7047181CC046A2DF7047F0
:10CD6000181CC046A3DF7047181CC046A4DF7047DC
:10CD7000181CC046A5DF7047181CC046A6DF7047C8
:10CD8000181CC046A7DF7047181CC046A8DF7047B4
:10CD9000181CC046A9DF7047181CC046AADF7047A0
:10CDA000181CC04660DF7047181CC04661DF704722
:10CDB000181CC04662DF7047181CC04663DF70470E
:10CDC000181CC04664DF7047181CC04665DF7047FA
:10CDD000181CC04666DF7047181CC04667DF7047E6
:10CDE000181CC04668DF7047181CC04680B582B06A
:10CDF00000AF78607B681B781A1C7B6801331B7856
:10CE00001B029BB213439BB29BB2181CBD4602B0DF
:10CE100080BDC04680B582B000AF294B1A68294B4F
:10CE20001B689A4248D0264B1A682749131C9B005E
:10CE30009B189B00CB189B78002B18D1204B1A68AD
:10CE40002149131C9B009B189B00595A1C4B1A68C4
:10CE50001D48131C9B009B189B00C3189B88081C33
:10CE6000191C0022FFF762FF031C7B6016E0144BC5
:10CE70001A681549131C9B009B189B00595A104BAC
:10CE80001A68131C9B009B189B000F4A9B180833C1
:10CE9000081C191CFFF752FF031C7B607B68002BEA
:10CEA0000AD1074B1B685A1C054B1A60044B1A68C1
:10CEB00007231A40024B1A60BD4602B080BDC0462F
:10CEC0002C2E0020282E0020882D002080B582B036
:10CED00000AF78603960FFF79DFFBD4602B080BDAE
:10CEE00080B584B000AF786039603B689A897B6810
:10CEF0009B889A4239D10023FB603B1C08330222F5
:10CF00001A7039680823FA688A18D3189B7A1A1C91
:10CF1000012313405A425341DBB2FA680132FA60EE
:10CF2000002B0DD039680823FA688A18D3189B7A29
:10CF30001A1C3B1C08335A80FB680133FB600CE071
:10CF4000FB6808333A68D3180A33181CFFF74EFF02
:10CF5000031C1A1C3B1C08335A807B689B68796849
:10CF60003A1C0832081C111C9847BD4604B080BD0D
:10CF700090B585B000AF78607B681B78002B4DD1F1
:10CF80007B689A88274B9A4248D17B689B79012B12
:10CF900044D1254B1B687A6852881A800023FB60B5
:10CFA00028E07968FA68131C5B009B189B00CB187B
:10CFB0005A891E4B9A421AD11B4B19687C68FA6831
:10CFC0000820131C5B009B189B00E3181B189B890F
:10CFD0004B80154B19687C68FA680820131C5B00AD
:10CFE0009B189B00E3181B185B898B8008E0FB688B
:10CFF0000133FB607B681B7A1A1CFB689A42D0D80D
:10D000003B1C083301221A70074B1B689A68064BB9
:10D0100019683B1C0833081C191C9047BD4605B015
:10D0200090BDC0460D180000842D0020372A000056
:10D0300080B584B000AF786039607B68002B02D087
:10D040003B68002B01D10E2320E03B1C0C33012256
:10D050009A703B1C0C330F4A1A800F4B7A681A6087
:10D060000D4B1B683A6812689A600B4B1B680122D3
:10D0700052421A80084B1B6800225A803A1C0C321C
:10D08000064B101C191C05F023FC031C181CBD4684
:10D0900004B080BD0D180000842D002071CF010068
:10D0A00080B582B000AF786039607B68002B1FD0FC
:10D0B0003B68002B1CD03B681B88372B0FD0382BCC
:10D0C00006D0102B12D13B689A887B681A8010E03A
:10D0D0007A683B68101C191CFFF702FF09E07A68A8
:10D0E0003B68101C191CFFF7F1FE02E0C04600E08F
:10D0F000C046BD4602B080BD80B584B000AFBB1D48
:10D1000018803B1D1980FB1C1A703B1C0E33FA1C47
:10D1100012781A801F4B1A68131C9B009B189B00E7
:10D120001D495B18BB6001321A4B1A60194B1A6813
:10D1300007231A40174B1A60BB683A1D12885A81A0
:10D14000BB680222DA81BB681A1DBB681A61BB6822
:10D1500000229A81BB6801221A723B1C0E331B8885
:10D16000DAB2BB681A713B1C0E331B881B0A9BB2D8
:10D17000DAB2BB685A71BB68BA1D12881A80BB68E4
:10D1800001229A70FFF746FE0023181CBD4604B02A
:10D1900080BDC046282E0020882D002080B582B09A
:10D1A00000AF78607B68002B01D10E2309E07B681B
:10D1B0001A887B685B88101C191C0122FFF79CFFF2
:10D1C000031C181CBD4602B080BDC04680B584B0AB
:10D1D00000AFF860B9607A600B4A7B68101C191CBC
:10D1E0007F2205F0BDFD084A7F230021D154BB6892
:10D1F0009AB2064B1A80064BFA681A60034B1B88DA
:10D20000034B1B6872B6FEE7302E0020B02E0020C4
:10D21000B42E002023DF7047181CC04624DF70475F
:10D22000181CC04625DF7047181CC04626DF704713
:10D23000181CC04627DF7047181CC04628DF7047FF
:10D24000181CC04629DF7047181CC0462ADF7047EB
:10D25000181CC0462BDF7047181CC0462CDF7047D7
:10D26000181CC0462DDF7047181CC0462EDF7047C3
:10D27000181CC0462FDF7047181CC04630DF7047AF
:10D28000181CC04631DF7047181CC04632DF70479B
:10D29000181CC04635DF7047181CC04636DF704783
:10D2A000181CC04633DF7047181CC04634DF704777
:10D2B000181CC04637DF7047181CC04638DF70475F
:10D2C000181CC04639DF7047181CC0463ADF70474B
:10D2D000181CC0463BDF7047181CC0463CDF704737
:10D2E000181CC0463DDF7047181CC0463EDF704723
:10D2F000181CC0463FDF7047181CC04641DF70470E
:10D30000181CC04642DF7047181CC04643DF7047F8
:10D31000181CC04640DF7047181CC04644DF7047E9
:10D32000181CC04645DF7047181CC04646DF7047D2
:10D33000181CC04647DF7047181CC04648DF7047BE
:10D34000181CC04649DF7047181CC0464ADF7047AA
:10D35000181CC0464BDF7047181CC0464CDF704796
:10D36000181CC0464DDF7047181CC04651DF70477F
:10D37000181CC04652DF7047181CC04621DF70479A
:10D38000181CC04620DF7047181CC04622DF7047BB
:10D39000181CC04680B582B000AF78607A6803235D
:10D3A00013405A425341DBB2181CBD4602B080BD47
:10D3B00080B582B000AF78601D497A68131C9B006D
:10D3C0009B189B00CB1800221A7119497A68131C0C
:10D3D0009B009B189B00CB180022DA8014497A68C6
:10D3E000131C9B009B189B00CB180C3301221A6066
:10D3F0000F497A68131C9B009B189B00CB181033B5
:10D4000000221A600A497A68131C9B009B189B0033
:10D41000CB18143300221A6005497A68131C9B004C
:10D420009B189B00CB1800221A81BD4602B080BD1C
:10D43000B82E002080B582B000AF0F4B00221A80BA
:10D440000E4B00221A700E4B00221A700C4B002259
:10D450005A700B4B00229A7000237B6006E07B68B9
:10D46000181CFFF7A5FF7B6801337B607B68092BE5
:10D47000F5D9BD4602B080BD8C2F00208F2F002033
:10D48000B82E002080B586B000AFB9607A601A1C53
:10D490003B1C0F33011C19703B1C0C331A803B1CC6
:10D4A000133300221A703D4B5B780A2B6ED03B4B36
:10D4B00019783A4B5A783B1C13338A181A703B1C64
:10D4C00013331B78092B06D93B1C13333A1C133238
:10D4D00012780A3A1A703B1C13331A782F49131C1E
:10D4E0009B009B189B003A1C0F32CB1812781A71C4
:10D4F0003B1C13331A782949131C9B009B189B0073
:10D50000CB1814337A681A603B1C13331A782348FB
:10D510000821131C9B009B189B00C3185B18BA685A
:10D52000043303CA03C33B1C13331A781B49131C6F
:10D530009B009B189B003A1C0C32CB181288DA8097
:10D540003B1C13331A781549131C9B009B189B0036
:10D550003A1C2032CB1812881A8100237B610F4BB2
:10D560009B7801225340DBB2002B08D000F0EAFA8E
:10D57000031C7B617B69112B01D100237B61074B6D
:10D580005B780133DAB2054B5A7001E004237B610A
:10D590007B69181CBD4606B080BDC046B82E002071
:10D5A00080B582B000AF00237B600A4B5B78002B14
:10D5B0000BD000F0C7FA031C7B607B68002B04D003
:10D5C0007B68112B01D100237B607B68181CBD4652
:10D5D00002B080BDB82E0020B0B586B002AF786032
:10D5E000254B1B781A1C391C0F312348131C9B0038
:10D5F0009B189B00C3181B790B701F4B1B781A1CC0
:10D600001D49131C9B009B189B00CB180C331A68F8
:10D610001A4B1201D358BB60174B1B781A1C131CF2
:10D620009B009B189B001A1C0832134BD318191D22
:10D63000114B1B781A1C1048131C9B009B189B0055
:10D64000C31814331D680C4B1B781A1C0A48131C92
:10D650009B009B189B00C318DB88181C3B1C0F33D6
:10D660001A787B680090BC68081C111C1A1C2B1CC3
:10D67000A047BD4604B0B0BDB82E0020902F0020BA
:10D6800080B586B000AF786000237B616E4B9B78DD
:10D69000002B00D1D5E06C4B00229A706B4B1B78AD
:10D6A000082B16D17B68022B03D1684B00221A701D
:10D6B00002E0674B00221A70FFF772FF031C7B61C8
:10D6C0007B69002B00D1B9E07B69181CFFF784FF50
:10D6D000B4E07B68022B03D0032B00D1A8E0ABE0C1
:10D6E000594B1B781A1C131C9B009B189B00564A15
:10D6F0009B1804333B61574B1B8801339AB2554B3F
:10D700001A803B691B78022B08D1524B1B889A0266
:10D710003B695B889A4201DB012200E000223B1C4E
:10D720000F331A70197801220A401A703B691B786E
:10D73000052B05D1454B1B78072B01D1012200E0B9
:10D7400000223B1C0E331A70197801220A401A700D
:10D750003B691B78042B05D13C4B1B78072B01D16F
:10D76000012200E000223B1C0D331A7019780122BF
:10D770000A401A703B691B78042B0CD1354B1B886F
:10D780009A023B695B889A4205DB304B1B78002B81
:10D7900001D1012200E000223B1C0C331A701978E1
:10D7A00001220A401A703B1C0E331B78002B0ED14D
:10D7B0003B1C0D331B78002B09D13B1C0C331B7811
:10D7C000002B04D13B1C0F331B78002B24D01F4BA4
:10D7D00000221A707B69181CFFF7FEFE1A4B1B789B
:10D7E000181CFFF7E5FD1B4B00221A80164B5B78D7
:10D7F000013BDAB2144B5A70134B1B780133DAB287
:10D80000114B1A70104B1B78092B05D90E4B1B7846
:10D810000A3BDAB20C4B1A70FFF7C2FE031C7B61A5
:10D820007B69002B0CD07B69181CFFF7D5FE07E045
:10D830000D20FFF7D1FE04E0C04602E0C04600E044
:10D84000C046BD4606B080BDB82E00208F2F0020F8
:10D850008E2F00208C2F002090B587B000AFF8608D
:10D86000B9607A603B6003237B61B34B1B78002B6C
:10D870000CD17B68002B06D13B68002B03D1AE4B4B
:10D8800002221A7002E0AC4B01221A70AA4B1B78DC
:10D89000062B00D93DE19A00A84BD3181B689F4680
:10D8A000A74B5B6901330CD0A54B5A6980235B05FC
:10D8B0001B699BB2101C191C05F0F2F8031C013BFC
:10D8C00003E080235B055B69013B802252051269FE
:10D8D00092B25343191C80235B051B699BB2BA6843
:10D8E00053431A1C80235B051B699BB29B089BB2A8
:10D8F000081C111C1A1CFFF741FD031C7B617B698E
:10D90000002B00D007E18C4B02221A7003E1BB68A8
:10D91000181CFFF737FD031C7B617B69002B00D0CF
:10D92000FBE07B68002B12D13B68002B0BD1FB681E
:10D930001B78042B03D1804B07221A70EDE07E4B3D
:10D9400005221A70E9E07C4B04221A70E5E07A4B5C
:10D9500003221A70E1E080235B051B699BB2BA6861
:10D9600053431C1C764B5B6901330CD0744B5A69D2
:10D9700080235B051B699BB2101C191C05F090F8F5
:10D98000031C013B03E080235B055B69013B8022B4
:10D990005205126992B253431A1C7B68201C111C59
:10D9A0001A1CFFF7EBFC031C7B617B69002B00D08A
:10D9B000B5E03B68002B0BD1FB681B78042B03D12F
:10D9C0005D4B06221A70AAE05B4B05221A70A6E096
:10D9D000594B04221A70A2E080235B051B699BB29D
:10D9E000BA685A437B689B00D218FB685B88D318DF
:10D9F0001C1C534B5B6901330CD0514B5A6980237B
:10DA00005B051B699BB2101C191C05F049F8031C2F
:10DA1000013B03E080235B055B69013B80225205EB
:10DA2000126992B25A437B689B00D218FB685B88EC
:10DA3000D3181A1C3B68201C111C1A1CFFF79EFCF3
:10DA4000031C7B617B69002B00D06AE0FB681B78BC
:10DA5000042B03D1384B06221A7062E0364B0522A4
:10DA60001A705EE080235B051B699BB2BA685A435B
:10DA70007B689B00D318191CFB681A69FB685B88DC
:10DA80009B089BB2081C111C1A1CFFF777FC031C97
:10DA90007B617B69002B46D17B68002B06D13B68FC
:10DAA000002B03D1244B07221A703CE0224B0622A4
:10DAB0001A7038E0224B5B6901330CD0204B5A6955
:10DAC00080235B051B699BB2101C191C04F0E8FF46
:10DAD000031C013B03E080235B055B69013B802263
