:020000040001F9
:10800000903C0020098201002382010025820100AA
:108010000000000000000000000000000000000060
:1080200000000000000000000000000027820100A6
:108030000000000000000000298201002B820100E6
:108040002D8201002D820100339801002D82010054
:108050002D82010000000000C9F101002D82010005
:108060002D8201002D820100299601002D82010040
:108070002D8201002D8201002D8201002D82010040
:108080002D82010089A501002D8201002D820100B1
:108090002D8201002D820100F9F001002D820100E6
:1080A0002D8201002D820100000000000000000070
:1080B00000000000000000000000000000000000C0
:1080C00000F002F800F044F80CA030C8083824187A
:1080D0002D18A246671EAB4654465D46AC4201D100
:1080E00000F036F87E460F3E0FCCB64601263342EE
:1080F00000D0FB1AA246AB4633431847D884000091
:10810000F88400000023002400250026103A01D343
:1081100078C1FBD8520700D330C100D50B6070473F
:1081200010B5702902D107F032FB10BD642902D1CD
:1081300007F0C2FA10BD782902D107F01BFB10BD71
:10814000002010BD1FB5C046C0461FBD10B510BDF4
:1081500007F00CFE1146FFF7F5FF01F0C0FD07F038
:1081600024FE03B4FFF7F2FF03BC07F029FE000072
:10817000401E00BF00BF00BF00BF00BF00BF00BF68
:1081800000BF00BF00BF00BF00BFF1D170470000BB
:10819000401E00BF00BF00BF00BF00BF00BF00BF48
:1081A00000BF00BF00BF00BF00BFF1D1704700009B
:1081B000401E00BF00BF00BF00BF00BF00BF00BF28
:1081C00000BF00BF00BF00BF00BFF1D1704700007B
:1081D00070B505460C46164602E00FCC0FC5103EA2
:1081E000102EFAD2082E02D303CC03C5083E042E6B
:1081F00007D301CC01C5361F03E021782970641C28
:108200006D1C761EF9D270BD03210C4802680A432A
:1082100002600B4802680A4302600A4880470A4825
:108220000047FEE7FEE7FEE7FEE7FEE7FEE70000A9
:1082300006480749074A084B7047000024050040DC
:1082400054050040F3820100C180010090300020FD
:10825000903C002090340020903400202E482F497C
:10826000086070472E48008CC0B2012810D12C48FD
:10827000808C0007000F0BD12948806AF02108404C
:10828000402805D12648C06A084201D10120704724
:108290000020FCE72248008CC0B2012827D12048EA
:1082A000808C0007000F22D11D48806AF02108420F
:1082B00005D11B48C06A084201D101207047184807
:1082C000806AF0210840102805D11548C06A08428C
:1082D00001D10120F2E71248806AF02108403028DD
:1082E00005D10F48C06A084201D10120E6E700200D
:1082F000E4E710B5FFF7CEFF002805D009480A498A
:108300004860C81309498861FFF7ACFF002802D014
:1083100001200749886010BD0024F40000280020D7
:10832000C00F00F0DFFF07C000050040006C0040F8
:108330000006004010B5002819DAF64A03071B0FA3
:10834000083B9B089B00D2588307DC0EFF23A34009
:108350009A438B071B0E8407E40EA3401A43ED4B90
:108360000407240F083CA408A4001A5118E0EA4AA4
:1083700003231B02D21883089B00D2588307DC0E0C
:10838000FF23A3409A438B071B0E8407E40EA340F0
:108390001A43E14B032424021B198408A4001A5138
:1083A00010BD182001F0DFFCDCA007F04FF900BF82
:1083B000BFF34F8FDD48D7491C39C860BFF34F8FDB
:1083C00000BF00BFFEE710B50020D9490860401E7D
:1083D000D84988600120D8494860C8600020D74942
:1083E0004860D74908600021D54841608160C1607C
:1083F0000020D349C03108600320D049086188605B
:1084000001200004CB4948600120CD49C0310860FB
:10841000C820CA49403108600120C74908600321CB
:108420000A20FFF787FF0A2001F083FC10BD0A2015
:1084300001218140B84A8032116000BF704710B5F9
:108440000446207802F097F9607802F094F9A07859
:1084500002F091F910BD38B568462EDFFFF7E7FF4F
:108460000020B8490870B8490870B84908706846D3
:1084700000782FDF1321B648008876DF0446B54820
:108480000078401CB349087008460178012001F0CB
:1084900091FEE1B2022001F08DFE082C01D0012CEA
:1084A0000BD100BF2546002D06D000BFAAA2FF2198
:1084B00021312846FFF775FF00BF38BD04460D4641
:1084C0002A462146A748FFF76CFFF8B507460D4638
:1084D0002878012802D0022818D110E0384601F08F
:1084E000E7FD044600BF2646002E06D000BF9AA234
:1084F000FF214C313046FFF754FF00BF07E000205A
:1085000000E0401C697D8142FBD800E000BF00BF55
:10851000F8BD30B595B0684606F06BF9044600BF6B
:108520002546002D05D000BF8BA28F492846FFF7B6
:1085300038FF00BF0098002804D001208B49087044
:1085400015B030BD082110A801720021017409A8DE
:10855000119001A8139011A9854803F0E1FB04468E
:1085600000BF2546002D06D000BF7BA27E491031FA
:108570002846FFF716FF00BF10A8007A002803D195
:1085800010A8007C002803D07A480078012813D076
:10859000794800784008400077490870084600781C
:1085A0000221884374490870A02008815020488126
:1085B00000204860888117E06F480078400840003C
:1085C0006D4908700846007802218843801C6A497A
:1085D0000870A02008815020488111A848601E2002
:1085E0008881012063490870634886DF044600BF24
:1085F0002546002D06D000BF57A25B492C312846E6
:10860000FFF7CFFE00BF182001F0ADFB00BF97E7DA
:10861000F7B50E4615463078152870D008DC1128BD
:108620000DD012283AD0132854D0142868D168E00D
:1086300021286CD022286BD02328F7D1FCE04F48AA
:108640000078401C4D49087008460178032001F06D
:10865000B1FD706800883E490880182001F083FB56
:1086600004224748009907F08FF900204549087017
:1086700070680188444806F00BFC044621464348D4
:1086800006F0E4FF42480078401C41490870084663
:108690000078012801DAFFF73CFFDFE001203949CB
:1086A00008706221384807F0CCF9182001F060FB0F
:1086B00037480078012801D1FFF72BFF34480078B4
:1086C000401E33490870B4203249086032A006F0D9
:1086D000BDFFC3E02A4803F019FA0446214637A03B
:1086E00006F0B4FF00BF2746002F06D000BF1AA235
:1086F000FF21A4313846FFF754FE00BFAEE081E011
:10870000ABE0374805F0F3F9044621466AE07DE026
:1087100081E000001CED00E000E100E07265626FA6
:108720006F74202E2E2E20720A0000000400FA051D
:10873000A428002000A3004000A0004000A50040A5
:1087400040A10040A82800200C2800200628002076
:10875000C4280020992800202E2E5C6D61696E2EA1
:1087600063000000EFBEADDE7905000005280020A3
:10877000B5280020BA280020682A00209A28002066
:10878000B62800200D280020F829002058FE0100FE
:1087900004280020842800205B444D5F4556545F28
:1087A000444953434F4E4E454354494F4E5D206418
:1087B0006973636F6E6E656374200A00444D5F4594
:1087C00056545F53454355524954595F5345545588
:1087D00050206572723A202564202E2E2E200A0029
:1087E0005C2A0020E4A006F031FF00BF2746002FDE
:1087F00006D000BFEC4AFF21AD313846FFF7D1FD6E
:1088000000BF2BE0E9A006F021FF27E02946EDA0FC
:1088100006F01CFF22E02946FAA006F017FF00BF71
:108820002F46002F06D000BFDF4AFF21BE31384659
:10883000FFF7B7FD00BF11E02946FEA006F006FFD6
:1088400000BF2F46002F06D000BFD74AFF21C331FB
:108850003846FFF7A6FD00BF00E000BF00BF0020C4
:10886000FEBDF0B505460B4600211C680EE0665CB7
:10887000481C275CAF4206D1881C20181060701E6F
:1088800090800020F0BD701C091800BF98888842B5
:10889000EDD80520F6E7F0B591B00646341D3088D6
:1088A0001D2871D00CDC12286FD004DC10286DD08C
:1088B00011286CD1B0E019286AD01B28F9D109E041
:1088C0003038030007F0AEFA0AACC0B0B4C0C0C084
:1088D000B8C0BCC020460B300F90A07AC00810A9C9
:1088E00008800DAA0FA90920FFF7BBFF0546002D40
:1088F00005D00DAA0FA90820FFF7B3FF0546002DEC
:1089000067D108A80D9907F019F8002008A9087385
:10891000D448006807F09AF8002801D1012000E04F
:108920000020029000200190002728E014207843C6
:10893000CD4A115803A807F001F8002069460876CF
:1089400008A903A807F082F8002801D1012000E05F
:10895000002001900198002810D0092161561420B0
:108960007843C14A80184160142179438918084628
:108970000C300722A11C07F007F802E07F1C052F2E
:10898000D4DB00BF00271BE036E03DE040E05BE0C9
:1089900020E00298002812D0B448007800280ED0B9
:1089A00087DF05462946B2A006F050FE182001F0E8
:1089B000DFF9B44AB449A01C88DF054607E07F1CF4
:1089C0006946088FC10F09184910B942E1D800BFA4
:1089D00000BF3EE0ADA006F039FEA078022809D124
:1089E000AF480078012806D10220AD490870FFF792
:1089F00090FD00E000BF2CE0AAA006F027FE208832
:108A0000A11C75DF054624E0B0A006F01FFE20E0A3
:108A1000B6A006F01BFE1CE0BAA006F017FE18E098
:108A2000BFA006F013FE14E0C6A006F00FFE10E093
:108A3000CCA006F00BFE0CE0D2A006F007FE08E08A
:108A4000D7A006F003FE04E03188DDA006F0FEFDAD
:108A500000BF00BF11B0F0BD10B50446022C02D01B
:108A6000032C0BD100E000BFDA480078002804D0C6
:108A70000020D8490870FFF74CFD00E000BF00BFA0
:108A800010BD10B50446204604F0B6F82146D24881
:108A900006F045FA2146D14804F0D6FF2046FFF7FC
:108AA000FAFE10BD10B50446204605F000FB204636
:108AB000FFF7D2FF10BD70B500BF00234822C849A0
:108AC0000D2006F0D2FA054600BF2E46002E06D035
:108AD00000BF354AB32189003046FFF762FC00BF72
:108AE00000BFC04806F0F6FA044600BF2546002D38
:108AF00005D000BF2C4ABC492846FFF752FC00BFF6
:108B0000BA4806F0F0FA044600BF2546002D06D00C
:108B100000BF254AB449091D2846FFF742FC00BFA3
:108B200070BD7FB505F066FB044600BF2546002DED
:108B300006D000BF1C4AB92189002846FFF731FC46
:108B400000BF00200090684602F01EFE044600BFF1
:108B50002546002D06D000BF134ABB2189002846B8
:108B6000FFF71FFC00BF052102A8013006F069FFD6
:108B70009F48019002213DE1444D5F4556545F53AB
:108B8000454355524954595F53455455505F434FDF
:108B90004D504C455445206572723A202564202E74
:108BA0002E2E200A0000000058870100444D5F4C23
:108BB000494E4B5F534543555245445F494E44200F
:108BC0000000000020444D5F4556545F444556491F
:108BD00043455F434F4E544558545F4C4F414445C5
:108BE0004420202A2A2A2D2D2D2D2D2D2A2A2A20D7
:108BF0006576742D726573756C743A202564200D4A
:108C00000A00000020444D5F4556545F44455649D4
:108C100043455F434F4E544558545F53544F52455C
:108C200044206576742D726573756C743A202564E2
:108C3000200D0A00444D5F4556545F444556494354
:108C4000455F434F4E544558545F44454C45544549
:108C500044206576742D726573756C743A202564B2
:108C6000200D0A0074280020102800200C28002065
:108C70007363616E2073746F70206572723A202581
:108C800064200A0050FE0100682A0020424C455F23
:108C90002E2E4556545F54494D454F5554200A00D9
:108CA000BA28002020424C455F4741505F4556544A
:108CB0005F434F4E4E5F504152414D5F55504441CE
:108CC00054455F524551554553540A00424C455F47
:108CD0004741505F4556545F434F4E4E5F5041529F
:108CE000414D5F5550444154450A0000424C455F98
:108CF0004741505F4556545F434F4E4E45435445A0
:108D0000440A000020424C455F4741505F4556549D
:108D10005F444953434F4E4E45435445440A000077
:108D2000424C455F47415454435F4556545F50524F
:108D3000494D5F535256435F444953435F5253502A
:108D4000200A0000424C455F47415454435F45565A
:108D5000545F434841525F444953435F525350204C
:108D60000A000000424C455F47415454435F45565A
:108D7000545F444553435F444953435F525350202B
:108D80000A000000424C455F47415454435F45563A
:108D9000545F57524954455F525350200A00000017
:108DA0002020424C455F47415454435F4556545F31
:108DB00054494D454F5554202020200A0000000002
:108DC00064656661756C74206576656E743A2025FD
:108DD00064200A0005280020F82900205C2A0020D1
:108DE0009C290020838A0100D1020000A58A01008D
:108DF0001186010068460172407A41084900491C09
:108E000068464172407A02218843014668464172B1
:108E1000407A1C21884301460C3168464172407AF1
:108E20002021884369464872072101A881711021D9
:108E3000C171007A40084000401C01A9087201A8D5
:108E4000007A02218843801C01A90872F84802F0C8
:108E500021FE044600BF2546002D05D000BFF54A7F
:108E6000F5492846FFF79DFA00BF7FBD10B51820D1
:108E700000F066FF182000F063FF182000F060FF8C
:108E8000072000F05DFF062000F05AFF03211A20A2
:108E900000F05FFF0321182000F05BFF0321192081
:108EA00000F057FF0321152000F053FF0321182085
:108EB00000F04FFF10BD10B5152000F05EFF002838
:108EC00001D1012000E00020DC490870182000F0EA
:108ED00054FF002801D1012000E00020D84908708B
:108EE000192000F04AFF002801D1012000E00020F5
:108EF000D44908701A2000F040FF002801D1012059
:108F000000E00020D0490870CC480078CC490978AE
:108F10000843CC4909780843CB4909780843CB4931
:108F20000870CB480078401CC9490870C3480078D5
:108F3000002804D0C7480078401CC6490870C048C3
:108F40000078002804D0C4480078401CC24908704A
:108F5000BC480078002804D0C0480078401CBF49B5
:108F60000870B9480078002804D0BD480078401C3B
:108F7000BB490870BB480078012823D1B34800786A
:108F800000281FD1B2480078B74908700020B049C6
:108F90000870B0480078B5490870AF48007848704C
:108FA000AE4800788870AE480078C8700120B0499B
:108FB00008700020A7490870A7490870A7490870E1
:108FC000A7490870A1480078A649087010BDA94AB1
:108FD0001168002901DB0A4600E04A42B4239A1ACC
:108FE00090B20146C217920F52189010002801DD6E
:108FF000411C88B2092800DD09209E490968002922
:1090000005DD0146603109B29B4A118004E001464A
:10901000403109B2984A1180964A1168002901DB53
:109020000A4600E04A42B4239A1A052A06DA934A0D
:1090300012686E2A02DB00218F4A1180704710B53A
:1090400014218F4B1B685A1A01D4134600E0534277
:1090500098B2002801DD421C90B20C2800DD0C20E3
:10906000844B1A68002A01DB134600E05342B42403
:10907000E31A1E2B0BDC824A12688A4203DD02B21D
:10908000804B1A8006E000227E4B1A8002E000220C
:109090007C4B1A8010BDF0B587B000200690734855
:1090A00000780590714800780490002411E06F4822
:1090B000015D0598814203DD06946C48005D0590D2
:1090C0006A48015D0498814202DA6848005D0490B4
:1090D000641C042CEBDB002407E06448015D049869
:1090E000081AA1006A465050641C042CF5DB06984F
:1090F000002806D0012822D002283DD003287BD1A9
:1091000058E0019903984018009945185748C078CD
:10911000564949784018401054490978401805903C
:10912000002D00D1012503990198461A5A21714357
:109130000846294606F0D8FC07465A3F5CE00099ED
:10914000029840180199451848488078474909789D
:10915000401840104549497840180590002D00D12D
:10916000012500990298461A5A217143084629465A
:1091700006F0BAFC07463FE00199039840180299AF
:1091800045183A48C078394949784018401037495D
:10919000897840180590002D00D101250199039888
:1091A000461A5A2171430846294606F09DFC074697
:1091B0005A3721E0009902984018039945182B4826
:1091C00080782A490978401840102849C978401801
:1091D0000590002D00D1012502990098461A5A21C8
:1091E00071430846294606F07FFC0746B437B42F82
:1091F00001DDFF3F693F00BF00BF1E4807601F49F8
:1092000005980860084600681F490968884206DB1F
:1092100001201E49087005201949086005E017481B
:1092200000688C21081A16490860012007B0F0BDBB
:10923000B52800205887010002030000C62800203E
:10924000C7280020C8280020C9280020CF280020D7
:10925000D2280020D5280020D6280020D72800209A
:10926000D8280020CE280020D3280020DD28002088
:10927000A8280020E0280020EE280020E428002074
:10928000E8280020EC280020B02800200628002034
:1092900070B5054612240120F7490870F748007898
:1092A000401CF64908700121002000F04DFFF348F2
:1092B0000178002000F07EFF14206843F049401838
:1092C000007B04281DD0EF48007802218843ED4937
:1092D000087087DF14216943E94A891808460C3071
:1092E000E94AE84988DF0446082C0AD100BF26462F
:1092F000002E05D000BFE54AE5493046FFF751F89A
:1093000000BF2146E3A006F0A1F9FF202D3006F0B2
:109310004BF9FFF758F801F081F9E549086020465C
:1093200070BD08B5E3480078092803D10820E24958
:10933000087012E0E1A000680090DE4800786946FD
:109340004870087801F017FA6946487801F013FA76
:109350006946887801F00FFA00BF08BDF8B50446E9
:1093600000200090D6480078032846D1522C30D0F7
:1093700014DC412C30D008DC202C30D0352C33D0FC
:10938000362C32D0402C36D125E0442C22D0462C2D
:1093900028D0482C21D0492C2DD11FE0652C15D088
:1093A00008DC542C1FD0612C0DD0622C0CD0632C07
:1093B00021D10AE0662C0AD0672C11D0682C10D07D
:1093C000812C18D104E000BF00BF00BF00BF00BF68
:1093D00000BF00BF00BF00BF00BF00BF00BF00BF95
:1093E00000BF00BF00BF00BF00BFB6480470002030
:1093F000B349087000E000BF15E1B14800780028CB
:1094000005D1B14804800120AD4908700BE1AC489A
:1094100000780128F0D1AD4804800320A8490870E5
:109420000520FEF7A5FEA8480022825EA548017827
:10943000A7A006F00BF9A348007848287DD010DCDF
:1094400040282BD006DC20287AD0352873D0362847
:1094500072D1CFE0412839D044283AD04628F7D1FC
:1094600010E066284FD006DC49287DD054287CD0F7
:109470006528EDD13DE0672878D0682877D081282D
:10948000E6D14AE0322006F08FF8462168460170A6
:10949000002141708170FEF7D2FFC2E08A490020AE
:1094A000085E401E142148437549085891490860D8
:1094B000854800787F49087083490988491E08B2A9
:1094C000FFF7E6FE8CA006F0C1F8AAE0FEF7C3FFA6
:1094D000A7E0452168460170072141700021817095
:1094E000FEF7ADFF782006F05FF8782006F05CF814
:1094F00097E0652001F03FF9002001F03CF90020E1
:1095000001F039F98DE0662001F035F9002001F015
:1095100032F9002001F02FF983E0812001F02BF9CE
:109520006949087801F027F96849087801F023F9BA
:1095300077E002E004E042E072E0FFF7F2FE70E064
:10954000202168460170604801786846417000211A
:109550008170032269466D4800F07BFD054600BF1F
:109560002E46002E0BD003E012E027E016E021E0AB
:1095700000BF464A4649CC313046FEF712FF00BFD5
:109580002A4651480021415E61A006F05FF848E09C
:109590004D490020085E6349086042E04221684668
:1095A0000170002141708170FEF749FF5EA001F05B
:1095B000EDF836E060A001F0E9F832E031E0002695
:1095C00015E0352001F0D7F80021304600F0EBFD22
:1095D000074601F0D0F80121304600F0E4FD0746CF
:1095E00001F0C9F8282005F0DFFF701CC6B2282E54
:1095F000E7DB16E0002610E0362001F0BCF830462C
:1096000000F0DCFD074601F0B6F8002001F0B3F8E9
:10961000282005F0C9FF701CC6B20A2EECDB00E062
:1096200000BF00BF00BFF8BD10B547480068401C30
:109630004549086010480078002801D0FFF73BFC3E
:1096400000204249086010BD70B540DF044600BFED
:109650002546002D05D000BF0C4A3D492846FEF79F
:10966000A0FE00BF70BDF8B507460D46287801285A
:1096700072D002286FD17FE00C28002098280020AB
:1096800010280020682A002050FE010058870100A1
:1096900013040000626C655F636F6E6E6563742017
:1096A0006572725F636F6465202564200A000000A4
:1096B000942800207C2800208828002047000500EE
:1096C00089280020F0280020EC280020EE28002027
:1096D0005B5061727365436F6D6D616E645D206395
:1096E0006D64203A20256420706172616D3A2025F6
:1096F00064200A007428002020676F20746F2062A5
:109700006561636F6E202E2E2E0D0A00782A0020D0
:109710005B49525F4352544C5D20256420202564F0
:10972000200A0000B02800207465737420303120B6
:109730006F6B202E2E000000746573742030322071
:109740006F6B202E2E000000A428002040A10040B6
:109750002705000000E013E0384604F0C8F904468D
:1097600000BF2646002E05D000BFFE4AFE49304607
:10977000FEF717FE00BF04E000BF012000BF00E0BD
:1097800000BF00BFF8BD38B5F84800906946F848FA
:1097900004F038F9044600BF2546002D06D000BF6E
:1097A000F04AF14919312846FEF7FBFD00BF38BDEC
:1097B00038B5F04800906946EF4800F0CBFB04460E
:1097C0002146EEA005F042FF00BF2546002D06D041
:1097D00000BFE44A2B2149012846FEF7E2FD00BF05
:1097E00038BD70B505F024FB044600BF2546002DAA
:1097F00006D000BFDB4ADC4930312846FEF7D1FDF8
:1098000000BF70BD08B5002002231222014600905F
:10981000192000F0CBFF142000F092FA0420E04958
:10982000486003210220FEF785FD022000F081FA46
:1098300008BD10B500F074FFDA49DB4A127888548D
:10984000D9480078401CD84908700978491ED54A83
:10985000505CFFF783FD0020D349087010BD3EB572
:10986000D2480078002836D00020D0490870D0486F
:10987000D04BD14A0090D1480168D14800F0B1FDE9
:10988000002801D0012000E000200446002C08D070
:10989000FEF7E1FD0520CB490870CBA005F0D6FE10
:1098A0003EBDC4480021415EC3480022825EC448D8
:1098B000C078019202910090C14883784278017883
:1098C000C5A005F0C3FE00F0A9FECB490860282022
:1098D00005F06AFE00BF00F0A1FEC8490968401A01
:1098E000C74988420DD900F099FEC4490860092093
:1098F000C449087000F092FE04462146C2A005F05B
:10990000A5FE00BFCCE708B5C8A005F09FFEB420B7
:10991000CD4908600020A5490870CC490870CC48A2
:109920000078002818D0962005F03EFE0020A549BA
:109930000870C8A0006800906846FEF780FD00200F
:109940009F49087048708870C870C3A005F07EFEFB
:1099500000209C49087000BF08BD38B5C248007897
:10996000030006F05FFA058DBAFD210420000020F7
:10997000BD4948708870C87008710320087000F0F5
:109980004DFEBA49086008460068B94908600020E1
:1099900007E0002214214143B64BC9188A60411CDC
:1099A000C8B20528F5DB7DE1A9480078002866D01B
:1099B000AD484078052839DB0420AB490870002009
:1099C0008049087000BF01E0411CC8B20528FBDBDC
:1099D0000025002400200DE014214143A54A8918E8
:1099E0008968A94204D31421414389188D6804462B
:1099F000411CC8B20528EFDB601CC4B2814804706A
:109A0000002D02D109207F4908709BA000680090BA
:109A100069464C70087800F0AEFE6946487800F060
:109A2000AAFE6946887800F0A6FE28E08E484078B5
:109A3000142148438F494018007B04281AD0052080
:109A400005F0B2FD884840781421484389490858F8
:109A50008A49086084494878FFF71AFC00F0DEFD67
:109A60008349086080484078401C7F494870002046
:109A7000087004E07C484078401C7B49487011E144
:109A800073480078002803D101207749087023E04B
:109A900075480079401C74490871052005F084FD63
:109AA00071480079042817DB6F48C078401C6E4964
:109AB000C8700846C078032805DB0020C87008710C
:109AC0000320087008E00020674908714978481EA3
:109AD000FFF7DEFB044600BFE4E0344800780028CE
:109AE00028D061488078062824DA00202F490870A1
:109AF0005D488078401C5C498870002014E05A4919
:109B00004978491E142251435A4A891889682C4AB7
:109B1000125C8A1854494978491E14235943554BFD
:109B2000C9188A60411CC8B20428E8DB052005F08A
:109B30003BFDABE04C494978491E142251434D4A44
:109B400089188868182105F0C5FF01464648407805
:109B5000401E14225043474A8018816000208FE045
:109B600095E0000058870100390500006796010064
:109B70005C2A0020CB840100782A00205B7561728A
:109B8000745F635F696E69745D3A206572726F72AB
:109B900020636F6465203A202564200A00000000DD
:109BA00000230040E4290020B4280020A828002039
:109BB000842A0020EE280020EC280020B028002075
:109BC000DD2800208828002073746F7070696E672C
:109BD000202E2E2E0A000000202309256420256453
:109BE000202564202564092564092564202D2D2065
:109BF0002564200A00000000BC28002094280020D2
:109C000080A903007C280020636C6F736573742047
:109C1000626561636F6E2074696D65206578706937
:109C2000726564202564200A000000005B68616E94
:109C3000646C655F73746F705D2053544F50202EB9
:109C40002E2E2E0A00000000842800200C28002060
:109C50000D28002042000000676574206E6578744E
:109C6000202E2E2E0D0A0000072800208C28002010
:109C700090280020102800204700050074280020AC
:109C80004149887002200870FEF7E5FB0AE03F4872
:109C90000078002802D003203B490870142005F00A
:109CA00083FC00BF00BF052005F07EFC38BD10B569
:109CB0003748007800280AD005280BD0072804D0A0
:109CC000082803D1FFF749FE07E006E000BFFFF7D1
:109CD000C6FD02E0FFF717FE00BF00BF10BDFFF793
:109CE00091FDFFF7C3F8FEF76EFBFEF7E4FEFEF70B
:109CF00018FFFFF776FDFFF746FDFFF759FD00F06F
:109D0000ACFCFF20F53005F04FFC22A005F09EFCD6
:109D1000072000F028F8062000F02AF8FEF7F9FBEB
:109D200000BFFFF791FCFFF7C2FF142005F03CFCD9
:109D3000F7E7C206D20E012191401D4A116070471B
:109D400003210522120707231B02D2188300D150DA
:109D5000704710B58A0005231B07072424021B192E
:109D600084001A5110BD01218140124A9160704750
:109D7000012181400F4AD160704701460D480069BA
:109D8000C840C007C00F7047072800200D280020DA
:109D9000882800205342202D20736574757020633D
:109DA0006F6D706C65746564202E2E2E200A200065
:109DB00000E100E00005005010B5C3480068C34949
:109DC0000968884237D0C048006824214843C04908
:109DD00040188078002810D1BB4A126824235A43C7
:109DE0000B46D2189188B84A126824235A43B84BBC
:109DF000985A002295DF04460FE0B34A12682423E4
:109E00005A43B34BD21811461831AF4A1268242373
:109E10005A43AF4B985A97DF0446AEA005F016FCA4
:109E2000A9480068401CA849086008460078400717
:109E3000400F086000BF10BD70B504460D46FFF727
:109E4000BBFF70BD30B587B005460C46A089A98818
:109E5000884211D1022069460871228A21461231B6
:109E600001A8013005F090FD217C01A8417501A9F0
:109E70002846AA68904700BF07B030BD30B587B00C
:109E800004462078002863D1A088012860D1A079F9
:109E90009C49897888425BD160889B490968088021
:109EA000002544E00C202946414320460A30405A10
:109EB00003281ED10C202946414320460A300818A9
:109EC000807890498978884213D10C2029464143F3
:109ED00020460A30081840898B49096848800C20C0
:109EE0002946414320460A300818008986490968F6
:109EF00088800C202946414320460A30405A0228D7
:109F000014D10C202946414320460A300818807895
:109F10007C498978884209D10C2029464143204652
:109F20000A300818008978490968C8806D1C207AB1
:109F3000A842B7D875A005F089FB012069460871D1
:109F40007148006801A982686F480068904700BFA7
:109F500007B030BD7FB504460D46794B0FCB6E463A
:109F60000FC6002C01D0002D02D10E2004B070BD10
:109F70006449891C684662DF0646002E01D03046DF
:109F8000F4E701205F4908805F4804605E49286863
:109F9000096888600020C0435B4909680880002088
:109FA0005949096848806749564804F057FFDDE77A
:109FB00070B505460C46002D01D0002C00D170BDB7
:109FC0002088102804D037280AD038280DD102E084
:109FD000A08828800AE021462846FFF733FF05E0E5
:109FE00021462846FFF728FF00E000BF00BF00BF62
:109FF000E5E7F7B5064615465148103005F026FB53
:10A000002F463248006831490968491C2F4A1160BF
:10A01000242148432E494418104600784007400F39
:10A0200011460860019961830221E183211D2162AB
:10A030000021A183012121762771FF2000023840F1
:10A040000112617126800120A070FFF7B5FE00208B
:10A05000FEBDF8B505460F4616463948583005F09E
:10A06000F5FA1A48006819490968491C174A11602D
:10A070002421484316494418104600784007400FF1
:10A0800011460860E9886183E683211D2162002171
:10A09000A1830121217632463946201D05F074FC4A
:10A0A000288820800120A070FFF786FE0020F8BDE0
:10A0B00010B50446002C01D10E2010BD6188208807
:10A0C0000122FFF796FFF8E7F8280020F428002087
:10A0D000902A00205B756172745F435D3A2053449F
:10A0E00020526561642F5772697465204150492080
:10A0F00072657475726E7320537563636573732E26
:10A100002E0D0A0000290020FC2800205B756172DA
:10A11000745F435D3A2048656172742052617465D2
:10A12000205365727669636520646973636F766531
:10A1300072656420617420706565722E0D0A0000DE
:10A14000A0FE01007D9E010070B504460D461E482C
:10A15000007828280FDA1C480078C0001B490C50F2
:10A1600019480078C0004018456017480078401C26
:10A170001549087016E0002013490870FF2141318D
:10A18000124805F060FC10480078C0000F490C50E0
:10A190000D480078C000401845600B480078401C0E
:10A1A0000949087070BD0246D000084BC0188B00EA
:10A1B000C05C70478200064B99507047014688008A
:10A1C000034A105C7047000004290020B02B0020D7
:10A1D000F02C0020F0B50446251E01DB2E4600E0E1
:10A1E0006E42B427BE1BB0B20546C617B60F76192D
:10A1F000B010002801DD451CA8B2102800DD102099
:10A20000002C04DD054660352DB21D8003E00546B7
:10A2100040352DB21D80251E01DB2E4600E06E422A
:10A22000B427BE1B032E05DA16460A3E8E4201DA1B
:10A2300000251D80F0BDF0B503461E241D1B01D472
:10A240002E4600E06E42B0B2002801DD451CA8B2E7
:10A250000E2800DD0E200D1E01DB2E4600E06E42B2
:10A26000B427BE1B1E2E07DCA34202DD05B21580FB
:10A2700004E00025158001E000251580F0BDF7B54C
:10A2800088B004460020069020780590207804903D
:10A2900000250DE0615D0598814202DD0695605D57
:10A2A0000590615D0498814201DA605D04906D1C47
:10A2B000042DEFDB002506E0615D0498081AA90073
:10A2C0006A4650506D1C042DF6DB0698002806D017
:10A2D000012821D0022839D0032878D153E00199F0
:10A2E0000398401800994618E078617840184010AB
:10A2F000217840180590002E00D10126039901987D
:10A30000471A5A2179430846314605F0EDFB07907C
:10A3100007985A3807905AE0009902984018019916
:10A320004618A078217840184010617840180590B0
:10A33000002E00D1012600990298471A5A2179432C
:10A340000846314605F0D0FB079040E0019903989C
:10A35000401802994618E078617840184010A178BA
:10A3600040180590002E00D1012601990398471A44
:10A370005A2179430846314605F0B6FB0790079805
:10A380005A30079023E00099029840180399461824
:10A39000A078217840184010E17840180590002EF0
:10A3A00000D1012602990098471A5A21794308469C
:10A3B000314605F099FB07900798B430079007984D
:10A3C000B42803DD0798FF386938079000BF00BF45
:10A3D0000999079808600A990598086001200BB050
:10A3E000F0BDF8B505460C4616461F460020009005
:10A3F0005E4A5F492846FFF742FF5C480068A0427A
:10A4000001DB01200090042229465A4805F0BCFADD
:10A4100000200FE0584A125C5300D218554B1B5CC9
:10A42000D118CA17920F52189205120E514B1A5496
:10A43000411CC8B20428EDDB4F484E490968016051
:10A440004A4A4B494B48FFF71AFF494800684B49B5
:10A450000860464800688C21081A494908603B4654
:10A4600022464248016845480068FFF7B3FE32467D
:10A470004248016842480068FFF7DDFE0098F8BDD9
:10A48000FFB583B006460D461746002002900190A6
:10A49000364A37493046FFF7F2FE34480068A84292
:10A4A00001DB0120019008223146324805F06CFAA8
:10A4B00000240CE03049095D89002E4A125D88189D
:10A4C000052105F011FB2B490855601CC4B2082C6E
:10A4D000F0DB2949274A05CA05C1002006E0254AC4
:10A4E000011D515C274A1154411CC8B20428F6DBF7
:10A4F0001E4A1F492348FFF7C2FE1C480068362841
:10A5000010DB01200290002005E01A49095C1D4A79
:10A510001154411CC8B20428F7DB144A14491948E5
:10A52000FFF7ADFE12480068144908600F48006844
:10A530008C21081A124908602A460C48069B0168BB
:10A540000E480068FFF746FE3A460C4801680C4882
:10A550000068FFF770FE0298002805D001980028D7
:10A5600002D0012007B0F0BD0020FBE70C2900203D
:10A5700008290020142900201C290020242900205B
:10A5800028290020102900205D484068002813D0A9
:10A590005C4801684068012212060023891858416E
:10A5A000584A11605060104601684068C0B211609E
:10A5B00050600020524948600020514940310860F5
:10A5C0007047F8B55048406800254E4B1A685B68E4
:10A5D00084185D417D26F600002720462946324634
:10A5E0003B4605F01BF84A04C00B1043C90BF8BDED
:10A5F000F8B5454840680025424B1A685B688418E6
:10A600005D41424E00272046294632463B4605F032
:10A6100005F84A04C00B1043C90BF8BD10B5FFF78D
:10A62000D0FF10BD10B5FFF7E3FF10BD70B50546B4
:10A63000FFF7F4FF044670BD0AE000BF00BF00BF93
:10A6400000BF00BF00BF00BF00BF00BF00BF00BF12
:10A650000146401E0029F0D1704710B501202C4959
:10A6600048608860002028498860022029494860A5
:10A670002849403948600321112000F00AF81120D0
:10A6800001218140244A116000BF01202049086057
:10A6900010BD10B5002819DA204A03071B0F083B2C
:10A6A0009B089B00D2588307DC0EFF23A3409A43EC
:10A6B0008B071B0E8407E40EA3401A43174B0407B5
:10A6C000240F083CA408A4001A5118E0124A0323DE
:10A6D0001B02D21883089B00D2588307DC0EFF238D
:10A6E000A3409A438B071B0E8407E40EA3401A4332
:10A6F000094B032424021B198408A4001A5110BD1D
:10A7000000110140302900200015014040420F0097
:10A71000001001404013014000E100E01CED00E0AA
:10A7200000BF424880680128FBD100203F49886073
:10A730003F488069C0B2704770B504460D46012697
:10A740000AE02046641E002804DB7D20C000FDF7DF
:10A750001FFD01E0002603E0344880680128F0D1A5
:10A7600000BF002C05DB002030498860304880693C
:10A770002870304670BD2E49C86100BF2B49C96999
:10A780000129FBD10021294AD161704730B5034628
:10A79000002528466D1C1C5C05E02046FFF7EBFFFA
:10A7A00028466D1C1C5C002CF7D130BDF8B507465F
:10A7B0000C4615461E46204600F025F8002130467E
:10A7C00000F02AF81A48C4604661069800280DD0A7
:10A7D000384600F018F80021284600F01DF814480B
:10A7E00005618760012012494031C8621148104953
:10A7F00048620420086001200F498860086000203A
:10A800000A498860F8BD03210522120707231B02AD
:10A81000D2188300D150704710B58A0005231B075A
:10A82000072424021B1984001A5110BD0021004086
:10A830000025004000E0D7010020004010B504468C
:10A840002146E4A004F002FF01210C206043EE4AFF
:10A8500080188172891E0C20604380180181FF21BD
:10A860000C2060438018C1720C21614388180721B5
:10A8700005F0E7F810BD10B504462146E3A004F04A
:10A88000E5FE18216143EC4A89180846113006217B
:10A8900005F0D7F818206043E7494018002101600F
:10A8A00041608160C160FF2118206043E24A801846
:10A8B0000174182060438018C175204602F068FDBD
:10A8C0000020A100DD4A505010BD70B503460C4673
:10A8D0000820002114E00C254D43CB4EAD19AD7A74
:10A8E00025420CD0D64DAB4205D00C254D43AD19B9
:10A8F0002D899D4202D11160002003E00520491CF2
:10A900000029E8D000BF70BDF0B585B005460E4601
:10A91000CC48039000245EE018206043C6494018EC
:10A92000027C2146C8A004F091FE18206043C24971
:10A930004018817D18206043BF4A8018427D18204E
:10A940006043BD4BC018007D019202910090182019
:10A9500060431F46C019C37C18206043C019827C25
:10A9600018206043C019417CC1A004F06FFE18207C
:10A97000604339464018C07DFF282BD1307802282B
:10A9800014D0182060434018C07D0221884318214C
:10A9900061433A468918C8751821614389180846E9
:10A9A00010300722314604F0EFFF0BE0182060431F
:10A9B000A1494018C07D41084900182060439E4AC3
:10A9C0008018C1752C70002003902146B8A004F0B7
:10A9D0003DFE02E0641C072C9ED300BF039805B027
:10A9E000F0BD7CB50446A1B26A46BC4803F026FD22
:10A9F0000546002D0DD12146B9A004F027FE5C21AB
:10AA0000684603F09AFE0546002D02D12046FFF766
:10AA100032FF28467CBDF0B585B005460E460520C0
:10AA20000390A87969792A79009201910290EB78D4
:10AA3000AA786978B44804F009FE00243FE01820A1
:10AA400060437D494018027C21467FA004F0FEFD52
:10AA50001820604378494018817D18206043764A69
:10AA60008018427D18206043734BC018007D01920E
:10AA700002910090182060431F46C019C37C182023
:10AA80006043C019827C18206043C019417C78A0C3
:10AA900004F0DCFD182161433A468918084610305D
:10AAA0000722294604F01CFF002807D1214697A061
:10AAB00004F0CCFD34600020039002E0641C072CFD
:10AAC000BDD300BF039805B0F0BDF8B505460C46F0
:10AAD000164698480768217897A004F0B7FD3246DB
:10AAE00021462846B847F8BD10B50446002010BDE1
:10AAF000FEB504460E469CA004F0A8FDA1786A4667
:10AB0000764803F09BFC0546002D62D160780C214D
:10AB100048433D494018807A40210840402801D0F0
:10AB2000022E06D16278A17898A004F08FFDA74F7D
:10AB30000FE0012E06D16278A178A5A004F086FD71
:10AB4000B24F06E06278A1786F48483004F07EFD8D
:10AB5000AF4FA07818225043374A8118002318229B
:10AB60006846B8470546002D20D1022E1ED06078D9
:10AB70000C21484324494018807A40218843617859
:10AB80000C225143204A8918887260781C22504355
:10AB9000A04A811818231C226846B8470546002D94
:10ABA00004D0A1782A469CA004F050FD022E10D0BB
:10ABB00020780C2148435F494018807A8000A649DC
:10ABC0000A582146684690470546002D01D029467F
:10ABD00044E146E15B444D5D3A20496E6974696128
:10ABE0006C697A696E6720436F6E6E656374696F16
:10ABF0006E20496E7374616E63652030782530383D
:10AC0000582E0D0A00000000042E00205B444D5D0C
:10AC10003A20496E697469616C697A696E6720507F
:10AC200065657220496E7374616E636520307825A6
:10AC30003038582E0D0A0000342D0020182D002029
:10AC4000FFFF0000438000005B444D5D3A5B4449D8
:10AC5000203078253032585D3A2044657669636546
:10AC60002074797065203078253032582E0D0A0016
:10AC70005B444D5D3A2044657669636520416464B8
:10AC800072203078253032582030782530325820E4
:10AC900030782530325820307825303258203078BE
:10ACA00025303258203078253032582E0D0A0000D9
:10ACB0005B444D5D3A20416C6C6F63617465642048
:10ACC00064657669636520696E7374616E6365207F
:10ACD0003078253032580D0A000000003C29002051
:10ACE0005B444D5D3A5B4449203078253032585DF5
:10ACF0003A2046726565696E6720496E7374616EAD
:10AD000063652E0D0A00000078FF01005B444D5D75
:10AD10003A20466F756E64206465766963652061CC
:10AD20007420696E7374616E6365203078253032EB
:10AD3000580D0A00102E00205B444D5D3A204E6FE6
:10AD400074696679696E67206170706C696361749B
:10AD5000696F6E206F66206576656E742030782589
:10AD60003032580D0A0000005B444D5D3A202D2D15
:10AD70003E206465766963655F636F6E74657874A1
:10AD80005F73746F72650D0A000000005B444D5DD7
:10AD90003A5B444920253032585D3A5B43492025CF
:10ADA0003032585D3A202D3E205570646174696ED2
:10ADB0006720626F6E64696E6720696E666F726D80
:10ADC0006174696F6E2E0D0A000000008FE50100AE
:10ADD0005B444D5D3A5B444920253032585D3A5B17
:10ADE000434920253032585D3A202D3E2053746F60
:10ADF00072696E6720626F6E64696E6720696E6645
:10AE00006F726D6174696F6E2E0D0A00C5E40100EA
:10AE1000E9AA0100DC2D00205B444D5D3A5B3078EF
:10AE2000253032585D3A4661696C656420746F2044
:10AE300073746F726520626F6E6420696E666F72E4
:10AE40006D6174696F6E2C20726561736F6E203056
:10AE500078253038580D0A0044FF0100B0A004F0F6
:10AE6000F5FB002D03D02946BBA004F0EFFBFEBD8F
:10AE7000FEB507460C4606200290C4A004F0E6FB8F
:10AE800061780C225143C94A8918088902AA694687
:10AE9000AADF0546002D70D161780C225143C44AC7
:10AEA0008918081D69460A8904F01AFD00281BD17B
:10AEB000A178C0A004F0CAFB60780C214843BB49CC
:10AEC0004018807A02210840022856D06178C8A034
:10AED00004F0BCFB60780C214843B54940180021C0
:10AEE00001604160816048E060780C214843B049CE
:10AEF0000858002805D0A178CBA004F0A7FBD74EB6
:10AF000004E0A178D6A004F0A1FBE04E69460989CF
:10AF100060780C225043A64A115061780C225143AC
:10AF2000A34A8918081D69460A89FDF751F9617815
:10AF30000C2251439E4A88180C2104F055FB60787E
:10AF40000C2358439A4B1A58A178D1A004F07EFBE9
:10AF500060780C225043964A811834230C223846DC
:10AF6000B0470546002D05D0A1782A46D2A004F0AE
:10AF70006DFB02E0E0A004F069FB0020FEBD70B5AF
:10AF800004460D46E8A004F061FB002070BDF8B552
:10AF900005460C46A2786178EBA004F057FB617877
:10AFA0000C225143824A881834230C22294603F08C
:10AFB00053FB0646002E1FD160780C2778437C4F48
:10AFC0003B586178EE486A6804F040FB61780C22D7
:10AFD00051433A4688180C2104F006FB60780C2196
:10AFE000484339460858401C0BD1002160780C2298
:10AFF00050433A46115004E061783246E1A004F033
:10B0000025FB3046F8BD70B504460D46ECA004F0B3
:10B010001DFB002070BDF8B5044600260027F0A0F7
:10B0200004F014FB60780C21484361490B586078A8
:10B030000C2148435D494018827A607801460090AF
:10B04000EFA004F003FB60780C21484358490858EE
:10B05000002822D060780C21484354494018807A57
:10B0600080210840802818D160780C2148434F493E
:10B070004018807A4021084040280ED0ECA004F00F
:10B08000E5FA60780C21484349494018061D60786C
:10B090000C2148434649085A87B261780C22514333
:10B0A000424A891808893A463146A9DF0546002DEB
:10B0B00004D02946E6A004F0C9FAF34D2846F8BDAD
:10B0C00010B50446F1A004F0C1FA002010BD70B51F
:10B0D0000446F6A004F0BAFA21780C225143FE4A45
:10B0E0008918081D052104F07FFA22780C235A43A1
:10B0F000F94BD218111D62780C235A432B4BD218EE
:10B1000010897EDF0546002D08D120780C214843A8
:10B11000F1494018407A01210843DFE100E20000D4
:10B120005B444D5D3A204661696C656420746F2014
:10B1300073746F7265207365727669636520636FDF
:10B140006E746578742C20726561736F6E20253083
:10B1500038580D0A000000005B444D5D3A204661FE
:10B16000696C656420746F2073746F726520646508
:10B170007669636520636F6E746578742C207265E0
:10B1800061736F6E20253038580D0A005B444D5DA9
:10B190003A202D2D3E2067617474735F636F6E7467
:10B1A0006578745F73746F72650D0A00042E002059
:10B1B000F82D00205B444D5D3A5B307825303258E5
:10B1C0005D3A204E6F206368616E676520696E206E
:10B1D000474154545320436F6E7465787420696EF0
:10B1E000666F726D6174696F6E2E0D0A000000004B
:10B1F0005B444D5D3A5B3078253032585D3A2052E1
:10B200006573657474696E672047415454532066B2
:10B210006F722061637469766520696E7374616E04
:10B2200063652E0D0A0000005B444D5D3A5B30788B
:10B23000253032585D3A205570646174696E67201C
:10B2400073746F72656420736572766963652063D9
:10B250006F6E746578740D0A000000008FE50100C0
:10B260005B444D5D3A5B3078253032585D3A20536F
:10B27000746F72696E6720736572766963652063A7
:10B280006F6E746578740D0A00000000C5E401005B
:10B290005B444D5D3A5B3078253032585D3A20474B
:10B2A0004154545320446174612073697A6520309D
:10B2B00078253038580D0A005B444D5D3A5B307894
:10B2C000253032585D3A4661696C656420746F20A0
:10B2D00073746F7265207365727669636520636F3E
:10B2E0006E746578742C20726561736F6E2030788F
:10B2F000253038580D0A00005B444D5D3A205365F7
:10B30000727669636520636F6E74657874207375F7
:10B31000636365737366756C6C792073746F7265A3
:10B32000642E0D0A000000005B444D5D3A202D2D77
:10B330003E2067617474635F636F6E746578745FD9
:10B3400073746F72650D0A005B444D5D3A5B43494F
:10B35000203078253032585D3A5B444920307825DA
:10B360003032585D3A202D2D3E2067617474735F32
:10B37000636F6E746578745F6C6F61640D0A0000B2
:10B38000040002005B444D5D3A5B253032585D3A63
:10B39000204661696C656420746F206C6F61642065
:10B3A0005365727669636520636F6E746578742C7B
:10B3B00020726561736F6E20253038580D0A0000C9
:10B3C0005B444D5D3A202D2D3E2067617474635FB0
:10B3D000636F6E746578745F6C6F61640D0A000052
:10B3E0005B444D5D3A202D2D3E2067617474735F80
:10B3F000636F6E746578745F6170706C790D0A00AC
:10B400005B444D5D3A5B4349203078253032585DCE
:10B410003A205374617465203078253032582C20DE
:10B4200053697A65203078253038580D0A000000BD
:10B430005B444D5D3A2053657474696E6720737484
:10B440006F72656420636F6E746578742E0D0A00E8
:10B450005B444D5D3A204661696C656420746F20E1
:10B460007365742073797374656D20617474726987
:10B4700062757465732C20726561736F6E2030780D
:10B48000253038582E0D0A00418000005B444D5D88
:10B490003A202D2D3E2067617474635F636F6E7474
:10B4A0006578745F6170706C790D0A005B444D5D66
:10B4B0003A20496E6974696174696E6720617574B8
:10B4C00068656E7469636174696F6E207265717509
:10B4D0006573740D0A000000102E002021780C22E4
:10B4E0005143FC4A8918487260780C214843FA4954
:10B4F0004018807A0421084361780C225143F64AAF
:10B500008918887260780C21484311464018807A67
:10B510002021884361780C225143EF4A89188872B0
:10B52000284670BD0146002901D1EC487047FF2034
:10B53000087048708870C8700020F7E7FFB58FB0BA
:10B540001D4600BFE3480068002801D113B0F0BDDC
:10B5500000BF18985C2800D9F8E7012006900BA8D6
:10B56000FFF7E0FF064600BF3746002F06D000BFBA
:10B57000DBA2E2493846FCF714FF00BF00BF002100
:10B5800008A8017301740A9518980990002712E021
:10B59000B9B207AADA4802F051FF0646002E09D1D7
:10B5A000082207A90F9804F09BF9002802D108A9E6
:10B5B0008F7302E07F1C072FEAD300BF08A8807BAF
:10B5C000FF287DD0109804280AD118985C2803D150
:10B5D000202008A90874B1E0402008A90874ADE053
:10B5E000C849681A182104F075FA0446072C1CD2C1
:10B5F00009A80D90119800280FD108A9887B012176
:10B600008140C14A1268114201D0012100E00021AD
:10B61000002902D10020069090E008A9887B01F063
:10B62000B7FE202008A9087488E0B849681A1C21D0
:10B6300004F050FA0446002C20D108A8427B817BFC
:10B64000B3A004F003F809A80D90202108A8017404
:10B65000447300200390BA4904911C206043AB4915
:10B660004018009008A8807B18214843A54940183D
:10B67000019068460A90182009905FE0B149681A65
:10B680000C2104F027FA0446002C27D108A8427B9D
:10B69000817BADA003F0DAFF302108A80174447368
:10B6A0000121C1730C2060438B494018807A02212C
:10B6B0000840022842D008A8427B817BAE4800E0C7
:10B6C00060E003F0C3FF08A8407B0C2148439D497C
:10B6D000401800210160416081602FE008A8427B92
:10B6E000817BA6A003F0B2FF00200690402108A8AD
:10B6F0000174AD48854204D10420109001200690C9
:10B700001CE008A8807B8000A8490858A84215D1F1
:10B710000120069009A80D9000200CE008A98A7B62
:10B720000C2141436C4BC918C97A8A4202D108AA3C
:10B73000507302E0401C0028F0D000BF069801289A
:10B7400020D11098042806D108A9087C03210843B9
:10B7500008A908740FE01098032806D108A9087CEE
:10B760000121084308A9087405E008A9087C022102
:10B77000084308A9087409A80D900CA90BA8119AF0
:10B78000FFF7A3F900BFE1E6F0B587B0064688A051
:10B7900003F05CFF002E02D1504807B0F0BD00243A
:10B7A00013E000BF214687A003F050FF00210C20CA
:10B7B0006043484A11500C206043801841720C20AD
:10B7C00060438018817200BF641C002CE9D0002403
:10B7D00003E02046FFF732F8641C002CF9D05948EA
:10B7E0000021016041608160002403E02046FFF7F2
:10B7F00042F8641C072CF9D35C21684601830721B9
:10B8000041837D4805903E4905A802F053FD054659
:10B81000002D5CD10120794908703078002857D17B
:10B820003748416876A003F011FF002418E1A1B267
:10B8300003AA334802F002FE0546002D49D12146F5
:10B8400077A0049A03F002FF182161432D4A88185B
:10B850000023182203A902F0FFFE0546002D09D09F
:10B860002A46214644484C3003F0F0FE002063494C
:10B870000870F8E01820604322494018027C2146F5
:10B88000714803F0E3FE182060431E494018817D93
:10B89000182060431B4A8018427D18206043194BD2
:10B8A000C018007D019202910090182060431F464D
:10B8B000C019C37C18206043C019827C18206043E3
:10B8C000C019417C6048283003F0C0FEC7E0D8E0D2
:10B8D000CAE0BBE0102E0020042E00200E800000E5
:10B8E0002E2E5C6465766963655F6D616E61676568
:10B8F000725F63656E7472616C2E63005F05000099
:10B900003C290020342D002044290020DC2D00207B
:10B910005B444D5D3A5B3078253032585D3A5B30A0
:10B9200078253032585D3A20426F6E6420636F6E26
:10B9300074657874204576656E740D0A0000000009
:10B940001C2E0020F82D00205B444D5D3A5B3078C2
:10B95000253032585D3A5B3078253032585D3A20D8
:10B960005365727669636520636F6E7465787420C1
:10B970004576656E740D0A004C0002005B444D5D17
:10B980003A5B3078253032585D3A5B30782530327A
:10B99000585D3A2041707020636F6E746578742032
:10B9A0004576656E740D0A0074FF0100182D0020A5
:10B9B0005B444D5D3A203E3E20646D5F696E697464
:10B9C0002E0D0A005B444D5D3A20496E6974696131
:10B9D0006C697A696E67204170706C696361746923
:10B9E0006F6E20496E7374616E6365203078253008
:10B9F00038582E0D0A0000003DB5010038290020FE
:10BA00005B444D5D3A2053746F72616765206861D5
:10BA10006E646C65203078253038582E0D0A000091
:10BA20005B444D5D3A5B3078253032585D3A2042B8
:10BA30006C6F636B2068616E646C652030782530B4
:10BA400038582E0D0A00000048AC01002A46214655
:10BA5000EA4803F0FBFD0020E949087003E0641C9C
:10BA6000072C00D2E3E610E06A46108B528B50435D
:10BA700081B2E44802F061FE0546E3A003F0E6FD72
:10BA800003E02946EFA003F0E1FDFEA003F0DEFD98
:10BA9000284682E670B505460C4600BFD8480078B7
:10BAA000002801D1FC4870BD00BF002D02D1FA482A
:10BAB000801DF8E7002C02D1F748801DF3E72068CD
:10BAC000002802D1F448801DEDE7F4A003F0BEFD8C
:10BAD000F8480068002812D1F7A003F0B7FDF54937
:10BAE000206808600522611DF248001D03F04CFF2C
:10BAF0002079F049887200202870002601E0E64E87
:10BB0000361FF7A003F0A2FD3046CCE7F8B5044697
:10BB100000BFBB480078002801D1DF48F8BD00BF56
:10BB2000002C02D1DC48801DF8E700BF20780128F6
:10BB300006DA20780C214843DE490858002801D154
:10BB4000D548EBE700BF00BF6078012807DA6078CE
:10BB50000C214843E8494018807A012802D1CE4898
:10BB60000830DBE700BFE5A003F070FDCA4D607848
:10BB70000C214843E0494018807A022108400228FD
:10BB80006AD1A078FF2807D160780C214843DA49B0
:10BB90004018C07AFF281BD060780C214843D64952
:10BBA0004018C07AA07063781C267343DC4E9A1943
:10BBB00063781C267343DA4E9B1919461231637859
:10BBC0000C267343CC4E9B19188981DF054643E050
:10BBD00060780C225043C84A81186846FEF794FEEC
:10BBE0000546002D37D16846017860780C22504315
:10BBF000C14A8018C17268460078A07020780C2174
:10BC00004843AC494018407AC007C00F1FD0C5A0B8
:10BC100003F01CFD60780C214843B7494018807A36
:10BC20002021084361780C225143B34A8918887255
:10BC300020780C2148439F494018407A022108434C
:10BC400021780C2251439B4A8918487203E0204610
:10BC5000FFF73DFA054600BF2946B8A003F0F6FC01
:10BC600028465BE770B504460D4600BF644800787F
:10BC7000002801D1884870BD00BF002C02D1864841
:10BC8000801DF8E7002D02D18348801DF3E700BF37
:10BC90002078012806DA20780C2148438549085885
:10BCA000002801D17C48E6E700BF00BF607801288A
:10BCB00007DA60780C2148438F494018807A0128C0
:10BCC00002D175480830D6E700BFA7A003F0BEFC3C
:10BCD00060780C21484388494018807A0421084242
:10BCE00008D160780C21484383494018807A20218C
:10BCF000084202D0012028700DE060780C214843F2
:10BD00007D494018807A8021084202D002202870A4
:10BD100001E0002028709DA003F098FC0020AAE715
:10BD2000F8B507460C4600BF35480078002801D119
:10BD30005948F8BD00BF002F02D15748801DF8E7D1
:10BD4000002C02D15448801DF3E72068002802D15E
:10BD50005148801DEDE7A068002802D14E48801DA3
:10BD6000E7E700BF3878012806DA38780C21484325
:10BD700050490858002801D14748DAE700BF8CA095
:10BD800003F064FC002500260020009000BF32E193
:10BD90000021009100BF12E00C224A43564BD218FA
:10BDA000D27A82420AD10C224A43D218927A0223D2
:10BDB0001A40022A02D10122009202E0491C002905
:10BDC000EAD000BF0099002916D1217BB1420ED9DB
:10BDD000182141437E4A8918C97DC907C90F06D178
:10BDE000182141438918B300A268D150761C2179EB
:10BDF000A94201D91821EDE0FCE00000DC000200BE
:10BE0000382900203C2900205B444D5D3A205375C1
:10BE1000636365737366756C6C79207265717565A3
:10BE20007374656420636C656172206F6620706551
:10BE30007273697374656E7420646174612E0D0A87
:10BE4000000000005B444D5D3A204661696C65640A
:10BE500020746F20726567697374657220776974E6
:10BE6000682073746F72616765206D6F64756C65AF
:10BE70002C20726561736F6E203078253038582E13
:10BE80000D0A00005B444D5D3A203C3C20646D5F30
:10BE9000696E69742E0D0A00088000005B444D5DD8
:10BEA0003A203E3E20646D5F726567697374657207
:10BEB0002E0D0A00102E00205B444D5D3A2041708B
:10BEC000706C69636174696F6E20496E7374616E22
:10BED000636520616C6C6F63617465642E0D0A008C
:10BEE0005B444D5D3A203C3C20646D5F7265676940
:10BEF000737465722E0D0A00042E00205B444D5DA4
:10BF00003A203E3E20646D5F736563757269747993
:10BF10005F73657475705F7265710D0A00000000D3
:10BF2000DC2D00205B444D5D3A204D61726B6564F1
:10BF30002070656E64696E670D0A00005B444D5D9C
:10BF40003A203C3C20646D5F736563757269747957
:10BF50005F73657475705F7265712C203078253061
:10BF600038580D0A000000005B444D5D3A203E3E0B
:10BF700020646D5F73656375726974795F73746152
:10BF80007475735F7265710D0A0000005B444D5D4E
:10BF90003A203C3C20646D5F736563757269747907
:10BFA0005F7374617475735F7265710D0A000000D0
:10BFB0005B444D5D3A203E3E20646D5F7768697456
:10BFC000656C6973745F6372656174650D0A000066
:10BFD000342D00204143F64A8918C97D02221142BE
:10BFE00008D118214143F24A89181031AB00226868
:10BFF000D1506D1C401C072800D2C9E6257126735C
:10C000002A463146EB4803F021FBEBA003F01EFB70
:10C0100000208EE60246F048704770B5044600BF27
:10C02000EE480078002802D1EB48883870BD00BF88
:10C03000002C02D1E8488238F8E700BF20780128B8
:10C0400006DA20780C214843E5490858002802D137
:10C05000E1488838EAE700BF00BFA078072807DA80
:10C06000A07818214843D2494018C07DFF2802D14A
:10C07000D9488038DAE700BFDAA003F0E7FAA07801
:10C08000FEF7AFFC0546DEA003F0E0FA2846CDE758
:10C0900070B5044600BFD1480078002802D1CE48D0
:10C0A000883870BD00BF002C02D1CB488238F8E739
:10C0B00000BF2078012806DA20780C214843C849BF
:10C0C0000858002802D1C4488838EAE700BF002693
:10C0D000D2A003F0BBFA00250BE018206843B44956
:10C0E0004018C07DFF2803D02846FEF77AFC06469C
:10C0F0006D1C072DF1D3D1A003F0A8FA3046D0E78C
:10C10000FEB504460D4600BFB4480078002802D1B1
:10C11000B1488838FEBD00BF002C02D1AE4882383D
:10C12000F8E7002D02D1AC488238F3E700BF207851
:10C13000012806DA20780C214843A949085800282C
:10C1400002D1A5488838E5E700BF00BF6078012824
:10C1500007DA60780C214843C0494018807A0128EA
:10C1600002D19D488038D5E700BF00BFA0780728DE
:10C1700007DAA078182148438D494018C07DFF2870
:10C1800002D195488038C5E700BFB5A003F05EFA3C
:10C19000A868002812D0686800280FD068680628B0
:10C1A0000CD22878012809D163780C277B43B54F3E
:10C1B000DB19181D6A68A96803F0E6FBA1786A46D6
:10C1C000B14802F03BF9064628788000AF490A588A
:10C1D0002146684690470646ADA003F037FA304640
:10C1E00098E77CB504460D4600BF7C4800780028DF
:10C1F00002D1794888387CBD00BF002C02D1764836
:10C200008238F8E7002D02D173488238F3E700BF87
:10C210002078012806DA20780C2148437049085814
:10C22000002802D16C488838E5E700BF00BFA0783D
:10C23000072807DAA078182148435D494018C07DD7
:10C24000FF2802D164488038D5E700BF60780C2110
:10C25000484382494018807A02210840022805D0CC
:10C2600094A003F0F3F95C48401CC4E79EA003F0DF
:10C27000EDF9A868002812D1686806280FD228783E
:10C2800001280CD160780C2148437E494018001DDC
:10C29000A86060780C2148437A4908586860A17802
:10C2A0006A46794802F0CAF806462878800097491D
:10C2B0000A58214668469047064695A003F0C6F9FD
:10C2C000304698E710B5044600BF4448007800287F
:10C2D00002D14148883810BD00BF002C02D13E4831
:10C2E0008238F8E700BF2078012806DA20780C2190
:10C2F00048433B490858002802D137488838EAE7C4
:10C3000000BF00BFA078072807DAA07818214843AB
:10C3100027494018C07DFF2802D12F488038DAE72E
:10C3200000BF84A003F092F92B48D4E7FEB5044681
:10C330000D4600BF29480078002802D126488838D9
:10C34000FEBD00BF002C02D123488238F8E7002D43
:10C3500002D121488238F3E76868002802D11E48DC
:10C360008238EDE700BF2078012806DA20780C211A
:10C3700048431B490858002802D117488838DFE78E
:10C3800000BF00BFA078072807DAA078182148432B
:10C3900007494018C07DFF2802D10F488038CFE7F9
:10C3A00000BF2868042801D20720C9E7DAE00000AE
:10C3B000342D0020200102005B444D5D3A203C3CBE
:10C3C00020646D5F77686974656C6973745F63720C
:10C3D000656174650D0A0000908000003829002016
:10C3E000102E00205B444D5D3A203E3E20646D5F80
:10C3F0006465766963655F64656C6574650D0A00E4
:10C400005B444D5D3A203C3C20646D5F6465766919
:10C4100063655F64656C6574650D0A005B444D5D22
:10C420003A203E3E20646D5F6465766963655F64B3
:10C43000656C6574655F616C6C0D0A005B444D5DF5
:10C440003A203C3C20646D5F6465766963655F6497
:10C45000656C6574655F616C6C0D0A00042E0020CC
:10C460005B444D5D3A203E3E20646D5F736572769D
:10C470006963655F636F6E746578745F7365740D6F
:10C480000A000000F82D00203C29002044FF010094
:10C490005B444D5D3A203C3C20646D5F7365727671
:10C4A0006963655F636F6E746578745F7365740D3F
:10C4B0000A0000005B444D5D3A204465766963657F
:10C4C000206D75737420626520636F6E6E65637492
:10C4D000656420746F2067657420636F6E7465787F
:10C4E000742E200D0A0000005B444D5D3A203E3E54
:10C4F00020646D5F736572766963655F636F6E74E8
:10C500006578745F6765740D0A00000054FF0100D0
:10C510005B444D5D3A203C3C20646D5F73657276F0
:10C520006963655F636F6E746578745F6765740DCA
:10C530000A0000005B444D5D3A20436F6E746578DD
:10C54000742064656C657465206973206E6F742057
:10C55000737570706F72746564207965742E0D0A3E
:10C5600000000000ECA003F071F8F54FA1786A46D6
:10C57000F44801F063FF0646002E2CD14423042228
:10C58000694602A802F068F80646002E0AD1029811
:10C59000401C07D0EC4FA1782B68EC48029A03F0BE
:10C5A00055F802E0EAA003F051F84423042229469A
:10C5B0006846B8470646002E0DD148231422684627
:10C5C000696801F0E4FF0646002E04D1A1788900D5
:10C5D000E94A68685050E9A003F038F83046AFE601
:10C5E000FEB504460D4600BFEE480078002801D194
:10C5F000ED48FEBD00BF002C02D1EB48801DF8E7DE
:10C60000002D02D1E848801DF3E700BF2078012803
:10C6100006DA20780C214843E4490858002801D163
:10C62000E148E6E700BF00BFA078072807DAA07856
:10C6300018214843DE494018C07DFF2802D1DA485E
:10C640000830D6E700BFDBA003F000F868680028D8
:10C6500005D1A0788000C8490858686004E0A17836
:10C660008900C54A68685050A1786A46B54801F00B
:10C67000E5FE0646002E19D144230422694602A88D
:10C6800001F0EAFF0646002E0ED10298401C0BD0A6
:10C69000482314226946686801F0DEFF0646002E32
:10C6A00004D10298286001E0BF4E3836CBA002F0DA
:10C6B000CDFF30469DE73EB5044600BFB94800783F
:10C6C000002801D1B8483EBD00BF002C02D1B648B9
:10C6D000801DF8E700BF2078012806DA20780C21B9
:10C6E0004843B2490858002801D1AF48EBE700BFE2
:10C6F00000BFA078072807DAA07818214843AC4982
:10C700004018C07DFF2802D1A7480830DBE700BFF2
:10C71000BCA002F09BFFA1786A468A4801F08EFE19
:10C720000546002D1CD144230422694602A801F0CD
:10C7300093FF05460298401C12D044230422BC49B2
:10C74000684601F024FF0546002D04D02946B9A013
:10C7500002F07CFF04E00020A1788900864A505056
:10C76000C3A002F073FF2846ADE7024600BF8D4824
:10C770000078002801D18C48704700BF002902D101
:10C780008948801DF8E7002A02D18748801DF3E719
:10C7900000BF1078012806DA10780C235843834B29
:10C7A0001858002801D18048E6E700BF10780870CB
:10C7B0000020E1E770B504460D4600BF79480078D7
:10C7C000002801D1784870BD00BF002C02D1764806
:10C7D000801DF8E7002D02D17348801DF3E700BFEC
:10C7E0002078012806DA20780C2148436F49085840
:10C7F000002801D16C48E6E700BF00BFA0780728F9
:10C8000007DAA0781821484369494018C07DFF28FD
:10C8100002D165480830D6E700BFA0A002F016FF9D
:10C820006078FF281CD12878022819D0A178182216
:10C8300051435F4A8918084610300722294603F001
:10C84000A3F8A078012181409B4A126811439A4ABB
:10C85000116000BF02212046FEF74AF9002601E0E0
:10C86000514E761E95A002F0F1FE3046ABE770B552
:10C8700004460E4600BF4B480078002801D14A48C4
:10C8800070BD00BF002C02D14748801DF8E7002E84
:10C8900002D14548801DF3E700BF2078012806DA61
:10C8A00020780C21484341490858002801D13E48CE
:10C8B000E6E700BF88A002F0C9FE3B4DED1EA07860
:10C8C000FF281CD16078FF2818D060780C214843DD
:10C8D00088494018807A0221084002280ED16178E8
:10C8E0001A48643002F0B2FE60780C225043814A4C
:10C8F00081180722304603F047F800250BE1A078A5
:10C90000182148432A494018C07D0221084201D11C
:10C91000A178F1E0FFE000005B444D5D3A203E3E2F
:10C9200020646D5F6170706C69636174696F6E5FC4
:10C93000636F6E746578745F7365740D0A00000030
:10C94000C5E401003C2900208FE501006C010200D4
:10C950005B444D5D3A2053746F72696E672061705D
:10C96000706C69636174696F6E20636F6E74657853
:10C97000742E0D0A00000000182D00205B444D5D50
:10C980003A203C3C20646D5F6170706C6963617437
:10C99000696F6E5F636F6E746578745F7365740D35
:10C9A0000A0000003829002008800000102E002016
:10C9B000342D00205B444D5D3A203E3E20646D5F87
:10C9C0006170706C69636174696F6E5F636F6E74C0
:10C9D0006578745F6765740D0A0000005B444D5D07
:10C9E0003A203C3C20646D5F6170706C69636174D7
:10C9F000696F6E5F636F6E746578745F6765740DE1
:10CA00000A0000005B444D5D3A203E3E20646D5FAD
:10CA10006170706C69636174696F6E5F636F6E746F
:10CA20006578745F64656C6574650D0A00000000CC
:10CA300074FF01005B444D5D3A204661696C65649A
:10CA400020746F2064656C657465206170706C691A
:10CA5000636174696F6E20636F6E746578742C20E7
:10CA6000726561736F6E203078253038580D0A007A
:10CA70005B444D5D3A203C3C20646D5F6170706C9E
:10CA800069636174696F6E5F636F6E746578745FFC
:10CA900064656C6574650D0A000000005B444D5DC3
:10CAA0003A203E3E20646D5F706565725F6164642C
:10CAB000725F7365740D0A00442900205B444D5D6C
:10CAC0003A203C3C20646D5F706565725F61646410
:10CAD000725F7365740D0A005B444D5D3A203E3E03
:10CAE00020646D5F706565725F616464725F676525
:10CAF000740D0A00042E0020EDA002F0A7FDA0781E
:10CB000018225043F74A8018014610310722304658
:10CB100002F03AFF0025F4A002F098FD2846AFE6A7
:10CB200070B58AB005460C4600BFF648007800286C
:10CB300002D1F5480AB070BD00BF002D02D1F24805
:10CB4000801DF7E7002C02D1EF48801DF2E700BFFF
:10CB50002878012806DA28780C214843EB49085840
:10CB6000002801D1E848E5E700BF00BFA878072802
:10CB700007DAA87818214843DA494018C07DFF2811
:10CB800002D1E1480830D5E700BFE1A002F05EFD28
:10CB900000BF0020E060E749216100216161A878C1
:10CBA00018214843CF49401860600020A060A97850
:10CBB00001AAE14801F042FC0646002E17D11823D5
:10CBC0001C2201A903A801F047FD0646002E0ED144
:10CBD000E060D849216100216161A87818214843AB
:10CBE000C049401860600020A06003A82060D3A066
:10CBF00002F02CFD30469DE7F0B591B004460026CA
:10CC0000002700BFBF480078002801D111B0F0BD57
:10CC100000BF00BFBD480068002800D1F6E700BF94
:10CC20000EA8FEF77FFC054600BF0995099D002D63
:10CC300006D000BFCA4ACB490998FBF7B2FB00BF38
:10CC400000BF00200A900025201D0C902A21684674
:10CC50008186FF2108A881760021017600201090AE
:10CC60002088102813D0A08810AA0221FDF72DFEDD
:10CC70000546002D0BD10C2110984843BA494018A5
:10CC8000C17A08A881761098C1B208A84176208898
:10CC9000172878D006DC10280BD0112874D0132860
:10CCA00073D1F3E0182871D01C2870D05228F7D126
:10CCB00010E310A800F074FB0546002D68D1012692
:10CCC000112108A801731098C1B208A84176A18863
:10CCD0000C2210985043A44A8018018102210C2292
:10CCE00010985043A04A801881720C221099514329
:10CCF0009D4A88180722A11D02F046FE0FA9A01D1B
:10CD0000FDF789FE0546002D6DD10F98C1B20C22AA
:10CD100010985043944A8018C1720C2110984843CF
:10CD200011464018807A082108430C22109951437B
:10CD30008D4A8918887208A90F9888760F9881B251
:10CD400002AA7D4801F07AFB0546002D43D1182048
:10CD50001C2100910190109848438449431884484D
:10CD6000039A109902F072FC1C22109951437F4AD9
:10CD7000881818231C2202A901F06EFC0546002D1C
:10CD80000BD02A4605E098E12EE0B7E231E2ADE2B1
:10CD900029E078A0109902F059FC342000900C2171
:10CDA00010984843824942180C2371485C3010990E
:10CDB00002F04CFC5548807A80007E490A580EA942
:10CDC00002A890470546002D0CD02A467AA010995B
:10CDD00002F03CFC06E02B466548A8300F9A1099FB
:10CDE00002F034FC00BF8AE2A17983A002F02EFC9D
:10CDF0000C21109848435C494018807A02218843EE
:10CE00000C2210995143584A891888720C211098A5
:10CE1000484311464018807A0821084008280ED15E
:10CE20000C211098484311464018807A8021084010
:10CE300080280FD100210EA8FDF75AFE0AE008A8AD
:10CE4000807EFF2806D008A9887EFDF714FDFF200C
:10CE500008A988760C211098484343494018807AE5
:10CE600004210840042805D101272848407AB84306
:10CE70002649487210210C22109850433A4A8018D3
:10CE800081720126122008A9087338E263A002F01B
:10CE9000DDFB0026A079C007C00F0090607A400734
:10CEA000C30F607A8007C20F607AC107C90FCBE059
:10CEB0005B444D5D3A5B4449203078253032585D03
:10CEC0003A20416464726573732067657420666FED
:10CED0007220626F6E646564206465766963652E96
:10CEE0000D0A0000342D00205B444D5D3A203C3C8F
:10CEF00020646D5F706565725F616464725F676511
:10CF0000740D0A003829002008800000102E00202F
:10CF10005B444D5D3A203E3E20646D5F64697374EE
:10CF2000726962757465645F6B6579735F67657458
:10CF30000D0A00001C2E00203C2900205B444D5DA2
:10CF40003A203C3C20646D5F646973747269627559
:10CF50007465645F6B6579735F6765740D0A0000C3
:10CF6000E0B801008C090000042E0020DC2D002018
:10CF7000140202005B444D5D3A5B253032585D3A45
:10CF8000204661696C656420746F206C6F61642059
:10CF9000426F6E6420696E666F726D6174696F6E48
:10CFA0002C20726561736F6E20253038580D0A0091
:10CFB000F82D002054FF01005B444D5D3A5B2530A5
:10CFC00032585D3A204661696C656420746F206C4C
:10CFD0006F6164207365727669636520696E666F40
:10CFE000726D6174696F6E2C20726561736F6E2053
:10CFF000253038580D0A00005B444D5D3A204469E5
:10D0000073636F6E6E65637420526561736F6E201B
:10D010003078253034580D0A000000005B444D5D27
:10D020003A203E3E20424C455F4741505F455654B2
:10D030005F5345435F504152414D535F52455155F7
:10D040004553540D0A000000F0A002F0FFFA002042
:10D050000790F8490891002109911C211098484334
:10D06000F549401804900C2110984843F3494018A2
:10D07000C07A18214843F2494018059000200690D4
:10D08000A08804AB002211467FDF0546002D05D0A5
:10D090002946ECA002F0DAFA0A950DE00C2110986E
:10D0A0004843E6494018807A042108430C2210992D
:10D0B0005143E24A8918887221E1A179F1A002F076
:10D0C000C5FAFC48407A40084000FA4948720C21F1
:10D0D00010984843D9494018807A042188430C228B
:10D0E00010995143D54A89188872142008A90873E9
:10D0F00001260127A079002802D0A0790A9077E0C4
:10D100000621A01D02F070FA1C2210995143CA4A50
:10D1100088181C2102F068FAE0794007C00F67D038
:10D1200008A8807EFF2863D00C2110984843C3498B
:10D130004018807A082108430C2210995143BF4AB5
:10D1400089188872A07A8007C00F0DD01821109816
:10D150004843BB494018C07D410849001822109837
:10D160005043B74A8018C1750C2110984843B34901
:10D170004018C07AFF283BD008A8827ECEA0109924
:10D1800002F064FA0C2110984843AC49085C02286C
:10D190002AD00C23109A5A430B46D11808AA927E23
:10D1A00018235A43A64BD21810461030072202F01B
:10D1B000EBFB08A8807E18214843A1494018C17D97
:10D1C0000220814308A8807E182250439C4A801880
:10D1D000C17508A9897E18225143994A89180846C1
:10D1E0001030072102F000FA01210EA8FDF780FCA3
:10D1F00085E0A07902090107090FB94802F026FA73
:10D20000A079000901283ED1A0790007000F01286C
:10D2100039D10C211098484388494018807A082158
:10D22000084008282FD10C2210995143AD4A891883
:10D23000081D062102F007FC162008A90873012723
:10D240000C21109848437D494018807A20210843DA
:10D250000C2210995143794A891888720C21109830
:10D26000484311464018807A402108430C22109907
:10D270005143724A891888728E48407A02210843C5
:10D280008C49487222E00C21109848436B494018A1
:10D29000807A802108430C2210995143674A8918EB
:10D2A0008872152008A908738248807A80008E4A07
:10D2B00011580EA888470546002D07D008A8827E81
:10D2C000417E8AA002F0C2F998480A9000200A9094
:10D2D000012614E096A002F0B9F97648807A800021
:10D2E000814A11580EA888470A9008E09BA002F0D6
:10D2F000ADF9132008A90873012600E000BF00BFA4
:10D30000002E0BD00BA90EA80A9AFDF7DEFB08A889
:10D31000007B122802D110A800F061F8002F35D050
:10D320006448407A0221084002282FD194A002F0DC
:10D330008DF908AA20219848FDF7C7FA0546002D67
:10D340001AD1002108A801710898C1B208A841713A
:10D350000C210898484339494018C17A08A88171BE
:10D3600009A8FDF7B4FE054608A8827941792B4645
:10D370008AA002F06BF908E098A002F067F94D4826
:10D38000407A022188434B49487200BF00BF3DE408
:10D3900001218140974A12688A4396490A60704782
:10D3A00070B5044694A002F051F9224601217A4852
:10D3B000FDF78BFA0546002D0BD19CA0216802F0E9
:10D3C00045F902210C22206850431C4A80188172C2
:10D3D00003E0A2A002F03AF90425284670BD10B57A
:10D3E0000446AAA0216802F031F90C2120684843C4
:10D3F00012494018807A012806D0B0A0216802F0B6
:10D4000025F92068FDF71AFA10BD00005B444D5D58
:10D410003A203078253032582C2030782530325858
:10D420002C203078253032582C2030782530325856
:10D430000D0A00001C2E0020DC2D0020042E0020F0
:10D44000342D00205B444D5D3A205365637572694D
:10D45000747920706172616D657465722072657097
:10D460006C792072657175657374206661696C658D
:10D47000642C20726561736F6E20307825303858C7
:10D480002E0D0A005B444D5D3A203E3E20424C4545
:10D490005F4741505F4556545F415554485F535470
:10D4A000415455532C2073746174757320253038A2
:10D4B000580D0A00102E00205B444D5D3A5B434935
:10D4C000203078253032585D3A5B44492030782549
:10D4D0003032585D3A20426F6E646564210D0A0057
:10D4E00008030200F82D002064FF01005B444D5D3D
:10D4F0003A5B4349203078253032585D3A5B4449E5
:10D50000203078253032585D3A204661696C656478
:10D5100020746F206170706C792073657276696316
:10D520006520636F6E746578740D0A004180000099
:10D530005B444D5D3A203E3E20424C455F4741549E
:10D5400054535F4556545F5359535F415454525F8F
:10D550004D495353494E470D0A0000005B444D5D51
:10D560003A203E3E20424C455F4741505F4556546D
:10D570005F5345435F524551554553540D0A0000D2
:10D580005B444D5D3A5175657565642072657175D2
:10D590006573740D0A000000FFFF00005B444D5DE1
:10D5A0003A5B4349203078253032585D3A5B444934
:10D5B000203078253032585D3A20536563757269A2
:10D5C0007479207265717565737420726573756CFA
:10D5D00074203078253038580D0A00005B444D5DCA
:10D5E0003A4E6F7468696E672070656E64696E6725
:10D5F000210D0A00442900205B444D5D3A2052650C
:10D60000717565737420746F20616C6C6F636174E5
:10D61000696F6E20636F6E6E656374696F6E2069EB
:10D620006E7374616E63650D0A0000005B444D5DAE
:10D630003A5B253032585D3A20436F6E6E656374F5
:10D64000696F6E20496E7374616E636520416C6C06
:10D650006F63617465642E0D0A0000005B444D5DCC
:10D660003A204E6F206672656520636F6E6E65634B
:10D6700074696F6E20696E7374616E636573206187
:10D680007661696C61626C650D0A00005B444D5DFA
:10D690003A5B4349203078253032585D3A20467253
:10D6A0006565696E6720636F6E6E656374696F6E22
:10D6B00020696E7374616E63650D0A005B444D5D95
:10D6C0003A5B253032585D3A2046726565642063C6
:10D6D0006F6E6E656374696F6E20696E7374616ED0
:10D6E00063652E0D0A00000070B504460D4628A0A3
:10D6F00001F0ACFF002070BD70B505460E462EA0AF
:10D7000001F0A4FF31462846FDF7B2FB0446002C89
:10D7100004D131462846FDF732FC0446204670BD50
:10D7200070B504460D462DA001F090FF002070BD9D
:10D7300070B505460E4632A001F088FF31462846F6
:10D74000FDF725FC0446002C04D131462846FDF7A0
:10D750005AFC0446204670BD10B5044630A001F0C6
:10D7600075FF617838A001F071FF002010BD70B521
:10D7700005463FA001F06AFF2846FDF74CFC044631
:10D78000002C03D12846FDF79BFC0446204670BDC3
:10D790005B444D5D3A202D2D3E206E6F5F736572A8
:10D7A000766963655F636F6E746578745F73746FB9
:10D7B00072650D0A000000005B444D5D3A202D2D7E
:10D7C0003E206761747473635F636F6E7465787411
:10D7D0005F73746F72650D0A000000005B444D5D5D
:10D7E0003A202D2D3E206E6F5F73657276696365FA
:10D7F0005F636F6E746578745F6C6F61640D0A00AF
:10D800005B444D5D3A202D2D3E2067617474736337
:10D810005F636F6E746578745F6C6F61640D0A008E
:10D820005B444D5D3A202D2D3E206E6F5F73657217
:10D83000766963655F636F6E746578745F6170703D
:10D840006C790D0A000000005B444D5D3A5B434972
:10D85000203078253032585D3A204E6F2053657263
:10D860007669636520636F6E746578740D0A0000D5
:10D870005B444D5D3A202D2D3E20676174747363C7
:10D880005F636F6E746578745F6170706C790D0A98
:10D890000000000010B59C4800689C490968884257
:10D8A0003DD0994800681421484399494018807830
:10D8B000002810D1944A126814235A430B46D218F8
:10D8C0009188914A126814235A43914B985A002226
:10D8D00095DF04460FE08C4A126814235A438C4BA0
:10D8E000D21811460831884A126814235A43884BCB
:10D8F000985A97DF0446002C0DD186A001F0A6FEB1
:10D9000081480068401C804908600846007840074C
:10D91000400F086002E08B4801F098FE00BF10BD88
:10D9200070B504460D46FFF7B5FF70BDF8B5054666
:10D930000C46A089A988884220D100260220694689
:10D9400008703146761C20461230405C304007D1CA
:10D950003146761C20461230405C6946488008E01B
:10D960002146123188190178427812021143684623
:10D97000418069462846AA68904700BFF8BD38B57F
:10D980000446207800283CD1A0886F49884238D1CD
:10D99000A079012835D160886C4909680880002584
:10D9A0001EE00C202946414320460A30405A68496F
:10D9B000884214D10C202946414320460A300818D9
:10D9C00040896249096848800C2029464143204625
:10D9D0000A30081800895D490968888003E06D1CD9
:10D9E000207AA842DDD800BF5AA001F02FFE012006
:10D9F0006946087055480068826854480068904736
:10DA000000BF38BD38B504460D46002C01D0002DAE
:10DA100001D10E2038BD0121684681704A4901803C
:10DA20004A48046049492868096888600020C04362
:10DA300046490968088000204449096848805249DD
:10DA4000684601F00BFAE5E770B505460C46002D77
:10DA500001D0002C00D170BD2088102804D03728B8
:10DA60000AD038280DD102E0A08828800AE021469B
:10DA70002846FFF75BFF05E021462846FFF750FFE9
:10DA800000E000BF00BF00BFE5E7F7B5064615465A
:10DA900032462C485C30019901F0D8FD2F461B48D6
:10DAA00000681A490968491C184A11601421484342
:10DAB00017494418104600784007400F1146086087
:10DAC000019961810221E181211D21610021A18152
:10DAD000012121722771FF2000023840011261717B
